:020000040800F2
:1000000030050020C1010008331400086B130008FC
:1000100031140008A10800080516000800000000BF
:10002000000000000000000000000000251500088E
:10003000A308000800000000351400082715000878
:10004000DB010008DB010008DB010008DB01000820
:10005000DB010008DB010008DB010008DB01000810
:10006000DB010008DB010008DB010008DB01000800
:10007000DB010008DB010008DB010008DB010008F0
:10008000DB010008DB010008DB010008DB010008E0
:10009000DB010008DB010008DB010008DB010008D0
:1000A000DB010008DB010008DB010008DB010008C0
:1000B000DB010008DB010008DB010008DB010008B0
:1000C000DB010008DB010008DB010008DB010008A0
:1000D000DB010008DB010008DB010008DB01000890
:1000E000DB010008DB010008DB010008DB01000880
:1000F000DB010008DB010008DB010008DB01000870
:10010000DB010008DB010008DB010008DB0100085F
:10011000DB010008DB010008DB010008DB0100084F
:10012000DB010008DB010008DB010008DB0100083F
:10013000DB010008DB010008DB010008DB0100082F
:10014000DB010008DB010008DB010008DB0100081F
:10015000DB010008DB010008DB010008DB0100080F
:10016000DB010008DB010008DB010008DB010008FF
:10017000DB010008DB010008DB01000800000000D3
:10018000DB010008DB010008DB010008DB010008DF
:10019000DB010008DB010008DB010008DB010008CF
:1001A0000000000000000000DB010008DFF80CD0B8
:1001B00000F052FB00480047692A00083005002083
:1001C0000648804706480047FEE7FEE7FEE7FEE7F1
:1001D000FEE7FEE7FEE7FEE7FEE7FEE7B1150008F3
:1001E000AD0100082DE9F05F0546002092469B46D0
:1001F00088460646814640241BE02846414647463D
:10020000224600F01EF953465A46C01A914110D3B7
:1002100011461846224600F005F92D1A67EB010831
:100220004F4622460120002100F0FCF817EB0009A0
:100230004E41201EA4F10104DFDC484631462A4627
:100240004346BDE8F09F40EA01039B0703D009E065
:1002500008C9121F08C0042AFAD203E011F8013BB2
:1002600000F8013B521EF9D27047D2B201E000F80B
:10027000012B491EFBD270470022F6E710B513464A
:100280000A4604461946FFF7F0FF204610BD2DE947
:10029000FE4F81EA030404F0004421F00041009481
:1002A0004FF0000B23F0004350EA01045ED052EA05
:1002B00003045BD0C3F30A54C1F30A552C44A4F2DF
:1002C000F3340194A0FB0254C1F3130141F48011F3
:1002D000C3F3130343F4801301FB024400FB034EFA
:1002E000840A970A44EA815447EA8357A4FB0768C3
:1002F00002958D0A05FB07854FEA932C04FB0C54ED
:100300002705029D4FEA065847EA1637B5EB080560
:100310006EEB070C870E920E47EA811742EA8312B2
:10032000A7FB0201B6EB0B0164EB00042B0D43EAC3
:100330000C335E1844EB1C50DA465146E7FB0201D1
:10034000C5F313044FEA0B3343EA14534FEA043264
:10035000019C43EA0603A4F10C040294009CCDE93D
:1003600000B400F0C4F803B0BDE8F08F00200146EF
:10037000F9E70EB5C10F80EAE0700844CA07002112
:1003800040F233438DE80E000A460B4600F0AFF80A
:1003900003B000BD00F0004230F000400AD0C10DB3
:1003A00001F56071C0F3160042EA0151C20840072E
:1003B00011437047002001467047000030B5041E0D
:1003C00071F1000404DB4FF00044404264EB010192
:1003D000141E73F1000405DB1C464FF0004352422B
:1003E00063EB0403994208BF904230BD01F0004323
:1003F00030B421F0004150EA010206D00A0DA2F506
:100400006072C1F31301002A02DC30BC0020704787
:10041000440F44EAC104C100E01830BC00EBC250F4
:1004200000F01FB8202A04DB203A00FA02F1002075
:1004300070479140C2F1200320FA03F31943904022
:100440007047202A04DB203A21FA02F0002170478D
:1004500021FA02F3D040C2F120029140084319462C
:1004600070470029A8BF7047401C490008BF20F012
:100470000100704710B4B0FA80FC00FA0CF050EAAA
:10048000010404BF10BC704749B1CCF1200421FA2B
:1004900004F411FA0CF118BF012121430843A3EB26
:1004A0000C01CB1D4FEA00614FEA102042BF002033
:1004B00010BC704700EBC35010440029A4BF10BC0F
:1004C0007047401C490008BF20F0010010BC704775
:1004D00010B5141E73F1000408DA401C41F100014C
:1004E00092185B411A4301D120F0010010BD2DE9A3
:1004F000F04D92469B4611B1B1FA81F202E0B0FA9A
:1005000080F220329046FFF78DFF04460F4640EA06
:100510000A0041EA0B0153465A46084313D01146DC
:1005200053EA010019D0C8F140025046FFF789FF95
:1005300005460E46504659464246FFF773FF0843AC
:1005400005D0012004E020463946BDE8F08D0020AA
:10055000054346EAE0762C4337430A986305E40AEC
:10056000A0EB08000022FD0A44EA47540A3002D5F5
:1005700000200146E9E7010510196941DDE9084558
:1005800000196941BDE8F04DA2E72DE9FE4F804614
:1005900081EA0300C00F0C46009021F0004123F0D7
:1005A0000045B8EB0200A94105D2404621469046DD
:1005B0001C460B46024623F00040104347D0270D4F
:1005C000C7F30A00C3F30A510290401A0190402871
:1005D0006BDAC3F3130040F4801B0098924620B1FD
:1005E0000023D2EB030A63EB0B0B01985946C0F1D1
:1005F00040025046FFF716FF06460D465046594644
:10060000019A00F03BF910EB08006141002487EAF1
:10061000115284EAE7731A4340D0009A62B3019AF8
:10062000012A4FEA075215DC001B61EB02014FF073
:10063000004202EA0752CDE90042001C41F5801158
:1006400032462B46FFF753FF03B0BDE8F08F40461C
:100650002146F9E7001B61EB0201001C41F5801304
:1006600000185B412018A2F5001747EB030140EA90
:10067000D570B6196D4111E06D084FEA360645EAAE
:10068000C0754FEA0752001B61EB0201001C41F5E7
:10069000801149084FEA30000019514132462B467B
:1006A00003B0BDE8F04FFFF713BF009801224000F0
:1006B0000023D0EB020263EBE073009821464FEA7F
:1006C000E074B8EB000061EB0401E9E783F000435C
:1006D0005BE781F0004158E72DE9F04D81EA030422
:1006E00004F0004B21F0004514464FF0000A23F0BF
:1006F000004150EA050220D054EA01021DD0C5F3A2
:100700000A570246C5F31303C1F31300C1F30A5697
:1007100040F4801543F48013A7EB0608101BD6465F
:1007200008F2FD3873EB050002D308F1010801E07F
:1007300092185B41B8F1000F03DA00200146BDE8D2
:10074000F08D00204FF48011064684460EE0171B02
:1007500073EB050705D3121B63EB050306434CEA55
:10076000010C49084FEA300092185B4150EA01073A
:10077000EDD152EA030012D082EA040083EA0501B7
:10078000084305D0101BAB4106D20122002306E02E
:1007900000224FF0004302E06FF0010253101AEB09
:1007A00006004CEB085110EB0A0041EB0B01BDE8D1
:1007B000F04DFFF78DBE2DE9F04D00231A461B1AB0
:1007C0008A4103DB00200146BDE8F08DC1F30A52E7
:1007D000C1F3130141F480154FF0000BD10702D192
:1007E00000186D41521E0027044640F2FF113846A2
:1007F00001EB620A3E468046024600204FF480111B
:10080000FFF71FFEC2197141BB1846EB0100B4EBA4
:10081000030C75EB000C04D3E41A65EB00051746D6
:100820000E46241908F101006D4180463428E3DDAD
:10083000F91946EB0600091BA84103D24FF0FF321D
:10084000134601E0002213461BEB070046EB0A515A
:10085000BDE8F04DFFF73CBE064C074D06E0E068F2
:1008600040F0010394E8070098471034AC42F6D3F7
:10087000FFF7A0FC902F0008B02F0008202A06DB0D
:10088000CB17203A41FA02F043EAE07306E041FA5E
:1008900002F3D040C2F1200291400843194670474C
:1008A000FEE7704770B5044600F0FAF80546601C94
:1008B00002D004480078044400F0F2F8401BA04243
:1008C000FAD370BD600000202DE9F84FDFF890B139
:1008D00000224FF001084FF0030A4FF00F090BF10F
:1008E000040E00BF0B6808FA02F42340A3426ED145
:1008F0004D68022D01D0122D0ED1D50800EB850CCC
:10090000DCF820505607F70E09FA07F6B5430E69D2
:10091000BE402E43CCF82060066855000F790AFAD5
:1009200005FC07F0030726EA0C06AF4037430760D3
:100930004E68012E05D0022E03D0112E01D0122EAA
:100940000ED18768CE6827EA0C07AE403E4386602A
:100950004668A6430C79C4F30014944034434460C1
:10096000C4688E6824EA0C04AE402643C6604C6816
:10097000E4006FD53B4C256845F48045256024682C
:1009800022F0030504F480440094374C2E19D6F865
:10099000084895072F0F09FA07F5AC43334DA842D5
:1009A00001D100252EE0324DA84201D1012529E0D8
:1009B000304DA84201D1022524E02F4DA84201D19B
:1009C00003251FE02D4DA84202D104251AE041E085
:1009D0002B4DA84201D1052514E02A4DA84201D192
:1009E00006250FE0284DA84201D107250AE0274D32
:1009F000A84201D1082505E0254DA84201D10925CD
:100A000000E00A25BD402543C6F80858DBF8004041
:100A10005D464E689C43F60300D51C432C60DEF80F
:100A2000004075464E689C43B60300D51C432C60BD
:100A30000B4D08352C684E689C43F60200D51C43CC
:100A40002C60074D0C352C684E689C43B60200D5CF
:100A50001C432C60521C102AFFF444AFBDE8F88FF1
:100A6000003C014044380240003001400000024098
:100A70000004024000080240000C02400010024046
:100A80000014024000180240001C024000200240F6
:100A9000002402400AB1816170470904FBE70000AD
:100AA00001488068704700006000002002488168AB
:100AB0000278114481607047600000200B4810B537
:100AC000016841F400710160016841F480610160D6
:100AD000016841F480710160032000F061F800209A
:100AE00000F006F800F024F8002010BD003C0240A1
:100AF00070B50D4D04464FF47A712878B1FBF0F0D3
:100B00000A490968B1FBF0F000F01BFC48B9102C51
:100B100007D200222146501E00F022F800206C600F
:100B200070BD012070BD0000600000206C0000203E
:100B30000A4808B5016841F480410160006800F48A
:100B4000804000900548001F016841F0805101601D
:100B5000006800F08050009008BD0000443802405A
:100B6000F0B40E4B1B680C46C3F30223C3F1070518
:100B7000042D00D90425191D072901D2002300E006
:100B8000DB1E012606FA05F1491E214099409E40D0
:100B9000761E16403143F0BC00F04DBD0CED00E078
:100BA000064900F0070208684FF6FF03184040EAC4
:100BB0000220034A10430860704700000CED00E07B
:100BC0000000FA052DE9F0470E46050065D0DFF874
:100BD0001481D8F80000F7B200F00F00B04207D23D
:100BE00088F80070D8F8000000F00F00B04254D12F
:100BF00028683D4C810712D5400703D5206840F492
:100C0000E05020602878000703D5206840F4604059
:100C100020602068A96820F0F00008432060287850
:100C2000C0072DD0304968680839012812D0022841
:100C300013D0032811D00968890700292DDA21680B
:100C400021F0030101432160FFF72AFF814641F2B1
:100C5000883A0EE009688903EFE709688901ECE743
:100C6000FFF71EFFA0EB0901514502D90320BDE8A3
:100C7000F0872068696800F00C00B0EB810FEFD1BD
:100C8000D8F80010404601F00F01B14207D90770B3
:100C9000006800F00F00B04201D00120E7E728789B
:100CA000400705D52068E96820F4E050084320603B
:100CB0002878000706D52068296920F4604040EABA
:100CC000C100206000F016F82168084AC1F3031142
:100CD000515CC840064908600020FFF709FF00206A
:100CE000C5E70000003C024008380240902E000892
:100CF0006C000020154810B5006810F00C02144874
:100D000013D01449042A0FD0082A0ED10F4C241FE7
:100D10002268236802F03F025B0207D52068C0F317
:100D20008810A0FB010106E0084610BD2168C1F350
:100D30008811A1FB00010023FFF754FA2168C1F3D9
:100D40000141491C4900B0FBF1F010BD08380240D8
:100D50000024F400001BB7002DE9F84F050076D001
:100D60002878DFF8F8B2BE4CC00749D0DBF8001095
:100D70005846C1F38101012908D00068C0F3810001
:100D800002280AD1201D0068400206D52068800391
:100D900036D568680028E2D032E06868B0F5803F58
:100DA00010D0B0F5A02F206810D020F48030206043
:100DB000206820F4802020606868A0B1FFF770FEF2
:100DC00006460CE0206840F48030F4E740F48020D0
:100DD0002060F7E7FFF764FE801B642873D8206863
:100DE0008003F7D50CE0FFF75BFE064605E000BF89
:100DF000FFF756FE801B6428F0D820688003F7D4E4
:100E00002878DFF8608280074FF000093ED5DBF8D4
:100E10000010584611F00C0F09D00068C0F3810093
:100E200002280BD18D48001F0068400206D42068BC
:100E3000800715D5E868012809D111E0E868B8B144
:100E40000120C8F80000FFF72BFE064605E002E18E
:100E5000FFF726FE801B0228C0D820688007F7D540
:100E60002068296920F0F80040EAC10020600DE008
:100E7000C8F80090FFF714FE064604E0FFF710FEE6
:100E8000801B02281FD820688007F7D42878000725
:100E900022D5724E744869696C3671B101210160C6
:100EA000FFF7FEFD074604E0FFF7FAFDC01B02282E
:100EB00009D830688007F7D50EE0C0F80090FFF73A
:100EC000EFFD074605E083E0FFF7EAFDC01B0228BF
:100ED0007ED830688007F7D42878400768D5DFF8D7
:100EE0007CA100270AF1380ADAF80000C0000BD410
:100EF000DAF8001041F08051CAF80010DAF800006A
:100F0000012700F080500090584E3068C00510D482
:100F1000306840F480703060FFF7C2FD009005E05B
:100F2000FFF7BEFD0099401A022851D83068C0056D
:100F3000F6D54A4EA868683601280FD005283068D3
:100F400010D020F001003060306820F004003060E4
:100F5000A868B8B1FFF7A4FD00900FE0306840F03A
:100F60000100F4E740F004003060F7E7FFF798FD78
:100F70000099411A41F28830814264D83068800774
:100F8000F4D50EE0FFF78CFD009007E0FFF788FD39
:100F90000099411A41F28830814254D83068800764
:100FA000F4D42FB1DAF8001021F08051CAF8001003
:100FB000A869C0B3DBF80010C1F3810102294AD04F
:100FC0000228484607D0C8F86000FFF769FD00E036
:100FD00039E005463AE04746C8F86000FFF760FD93
:100FE000064604E0FFF75CFD801B02282BD8206832
:100FF0008001F7D4D5E907010843A96A1C4A4908CA
:1010000002EB01416A6A41EA8211084395F82C100B
:1010100040EA01611148001F016001203866FFF7B6
:101020003FFD054605E014E0FFF73AFD401B0228AE
:1010300009D820688001F7D50BE000BFFFF730FD2D
:10104000401B022802D90320BDE8F88F20688001E8
:10105000F4D40020F8E70120F6E700000838024049
:101060000038024000004742800E474200700040B6
:101070000000FFFF70B5040005D00025A56294F8BC
:10108000510010B106E0012070BD84F85050204698
:1010900000F030F8022084F851002068016821F047
:1010A00040010160D4E901010843D4E9031211436E
:1010B000084361690843218B01F400710843E16929
:1010C0000843216A0843A16A084321680860A069AF
:1010D000042101EA1040616A0843216848602068E1
:1010E000C16921F40061C1616565012084F8510086
:1010F000002070BD10B586B0044614216846FFF785
:10110000BBF814492068884221D1134800210268A5
:1011100042F480120260006800F4801005900E48CE
:101120001438026842F020020260006800F02000DB
:1011300005904FF4607000900220CDE9010103207A
:1011400003900520049069460448FFF7BDFB06B0F4
:1011500010BD00000050014044380240001402401D
:101160002DE9F84F044690F8500000270A9E1D46CE
:1011700092468B464FF0010901280ED0012084F8D9
:101180005000FFF78DFC804694F8510061680128FB
:101190000CD0B1F5827F07D102E00220BDE8F88FC4
:1011A000A16809B9042801D00227C2E0BBF1000FF1
:1011B00027D0BAF1000F24D01DB394F851000428B1
:1011C00002D0052084F8510000206065C4F838A0E2
:1011D000E587A587C4F830B0E586A58620646064FD
:1011E00020680168490603D4016841F040010160AC
:1011F000E068B0F5006F606805D0E8B3012D46D017
:101200007FE0012795E008B1012D39D1206B2168DD
:101210000088C860206B801C2063E08E401EE08642
:101220002EE02068816889070FD5E18E69B1B9F198
:10123000010F0AD1216B0988C160206B801C2063DB
:10124000E08E401EE0864FF0000920688168C907E3
:101250000CD0E18F51B1C068A16B0880A06B801CDD
:10126000A063E08F401EE0874FF00109FFF718FCF4
:10127000A0EB0800B04200E009E001D3701C50D19F
:10128000E08E0028CDD1E08F0028CAD13FE0206B4E
:10129000216800780873206B401C2063E08E401E9C
:1012A000E0862EE02068816889070FD5E18E69B15C
:1012B000B9F1010F0AD1216B09780173206B401C31
:1012C0002063E08E401EE0864FF0000920688168B0
:1012D000C9070CD0E18F51B1C068A16B0870A06B39
:1012E000401CA063E08F401EE0874FF00109FFF72C
:1012F000D7FBA0EB0800B04202D3701C01D010E075
:101300007EB1E08E0028CDD1E08F0028CAD14246C0
:101310003146204600F090F828B101272020606572
:1013200007E0032705E0A06818B92068C168806855
:101330000090012084F85100002084F850003846C5
:101340002CE710B5401EB0F1807F01D3012010BD05
:101350004FF0E02460610F21601700F06CF900206D
:10136000A06107202061002010BDFEE7012240217E
:101370000148FFF78FBB000000140240002240210B
:101380000148FFF787BB00000014024030B587B06A
:1013900014216846FEF770FF15480024016841F0EB
:1013A00001010160016801F001010591016841F04E
:1013B00080010160016801F080010591016841F040
:1013C0002001016000680B4D00F020000590002214
:1013D00040212846FFF75EFB402000900120CDE928
:1013E0000104694628460394FFF76EFA07B030BD42
:1013F00030380240001402400C480B4902220160C0
:101400004FF48271416000218160C0E90312012222
:101410004261520282613022C0E907214162816249
:101420000A21C162FFF726BE00500140740000206F
:10143000FEE770477047000038B504461248134B6A
:101440000068B0FBF3F04FF47A7358430090606883
:10145000B0F5827F0DD10B460092002280212046FC
:1014600000F016F870B1606D40F020006065032058
:1014700038BD009830B1401E009020688068C0439D
:101480000006F6D5002038BD6C00002000366E0145
:101490002DE9F0411D4617460E460446DDF818803A
:1014A00008E0681C06D0FFF7FBFAA0EB0800A84292
:1014B0000BD255B12068806836EA000030D0002099
:1014C000B842EED10020BDE8F0812068416821F0EB
:1014D000E00141606068B0F5827F0BD1A068B0F593
:1014E000004F02D0B0F5806F04D12068016821F070
:1014F00040010160A06AB0F5005F09D12068016871
:1015000021F4005101602068016841F4005101603C
:10151000012084F85100002084F850000320D2E715
:101520000120CDE77047FFF7C1BA000030B593B096
:1015300030216846FEF7A0FE14210CA8FEF79CFEA1
:1015400019480025016841F080510160006800F0F1
:10155000805011901548016841F4404101600068D5
:10156000022400F4404011900120009000040190FA
:101570008001CDE9064006200890A820CDE90904A5
:1015800004200B906846FFF7E7FB0CA90F2081E8C9
:1015900031004FF4A0500F90E002109005210CA8EC
:1015A000FFF710FB13B030BD403802400070004020
:1015B0001048016841F4700101600F48016841F072
:1015C000010101600C4A00210832116002680B4BD6
:1015D0001A400260031D0A4A1A60026822F480223F
:1015E000026005480C3001600249580680390860E5
:1015F0007047000088ED00E000380240FFFFF6FE73
:1016000010300024FEE703B401984100009850EA2E
:10161000C12018BF04204A0D18BF40F0010040F25D
:10162000FF72B2EB515F08BF40F00200012808BF13
:10163000052002B070470907090E002804DB00F1FD
:10164000E02080F80014704700F00F0000F1E02067
:1016500080F8141D7047000070B5C1482DED020BD5
:101660002DED0E8B82B0119D25F000449FEDBEDB69
:101670009FEDBFEB84423EDBA4F140511098A1F1F5
:101680007F6108430FD0BC48844202DC28D1109807
:1016900030B39DED100B02B0BDEC0E8B02B0BDE877
:1016A000704000F0B0BC9DED100B53EC1D2B51ECC5
:1016B000100BFEF7ECFD9DED100B41EC180B53ECFD
:1016C0001E2B51EC100BFEF7E2FD53EC182BFEF72E
:1016D0005CFF41EC100B02B0BDEC0E8B02B070BD94
:1016E000012000F0D5FC02B0BDEC0E8B02B0BDE8CD
:1016F000704000F09DBCA1489FEDA18B844256DA5A
:101700009DED100BB4F1795F0ADA51EC100BFFF785
:101710007AFF042808BF00F09BFC9DED100BDAE770
:1017200053EC102B51EC100BFEF7B1FD41EC190BF3
:1017300095480621B0EE490AF0EE690A784400F0B7
:10174000E6FB53EC192B51EC100BFEF7A0FD41EC1E
:101750001A0B8E48B0EE490AF0EE690A042178446B
:1017600000F0D5FB53EC192B51EC100BFEF78FFD5D
:1017700053EC182BFEF709FF41EC100B51EC1A0B40
:1017800053EC102BFEF7A8FFCDE900019DED000BF7
:1017900053EC102B9DED100B51EC100BFEF777FD69
:1017A0009DED101B53EC112BFEF7EFFED2E09DEDEB
:1017B000100B51EC100B00F079FC53EC182BFEF7DA
:1017C00088FF9FED730BCDE9000153EC102B9DEDCD
:1017D000000B51EC100BFEF75AFD41EC190B6E4853
:1017E0000621B0EE490AF0EE690A784400F08FFB5A
:1017F00053EC192B51EC100BFEF749FD41EC1B0B80
:101800006648B0EE490AF0EE690A0421784400F017
:101810007EFB53EC192B51EC100BFEF738FD53EC0B
:10182000182BFEF7B2FE41EC1C0B51EC190B01F02A
:10183000EDFA41EC180B5A489FED5BABA04222DC5D
:1018400053EC1C2B51EC1B0BFEF746FFCDE90001BE
:101850009DED000B51EC180B53EC102BFEF717FD10
:1018600053EC182BFEF791FE53EC1A2BFEF70FFDED
:1018700053EC1D2BFEF72AFF53EC1E2BFEF729FF1E
:1018800041EC100B5FE08DED008B002000909DED92
:10189000000B51EC180B53EC102BFEF776FE9DED70
:1018A000000B41EC1E0B53EC102B51EC100BFEF710
:1018B000EEFC53EC192BFEF70CFF53EC1E2BFEF73E
:1018C0000BFF41EC190B53EC1C2B51EC1B0BFEF7DF
:1018D00003FF41EC1B0B53EC1A2B51EC190BFEF7D9
:1018E000D6FC53EC1D2BFEF7F4FE41EC190B53EC28
:1018F0001A2B51EC180BFEF7CAFC53EC1B2BFEF70E
:10190000C6FC53EC192BFEF7E1FE9DED000B41ECFC
:10191000180B53EC1A2B51EC100BFEF7B8FC9FED93
:10192000249B53EC192BFEF7D4FE41EC100B51EC29
:10193000180B53EC102BFEF7C9FE53EC192BFEF7D6
:10194000C8FE41EC100B002D3FF7C5AE51EC100B5B
:1019500081F0004141EC100BBDE6000000000000EA
:101960000000F03F00000000075C143326A6913C05
:10197000182D4454FB21F93F0000F07F0000E03FA8
:10198000000000000000F03F601700006E1700002C
:10199000000000000000E03FB2160000C01600008A
:1019A0003333EF3F00000000000000000000004063
:1019B000182D4454FB21E93F70B59B482DED020BD7
:1019C0002DED068B079D25F00044A04218DC9748BA
:1019D000844202DC0AD1069840B19DED060BBDECB5
:1019E000068B02B0BDE8704000F00DBB002DCCBFEF
:1019F0009FED8F0B9FED900BBDEC068B02B070BD81
:101A00008F48A04215DD8F48A042D8BF4FF0FF3469
:101A100058DD9DED060B51EC100BFFF7F4FD04288B
:101A200008BF00F015FB9DED060BBDEC068B02B068
:101A300070BD9DED060B51EC100B00F037FBCDE9AE
:101A4000060181489FED828BA0423CDD8248A04286
:101A50001FDD00249FED82AB9DED060B53EC1A2B8E
:101A600051EC100BFEF791FD9DED060B41EC190BAF
:101A700053EC1A2B51EC100BFEF709FC53EC182B0E
:101A8000FEF724FE53EC192BFEF726FECDE90601E6
:101A900049E09DED060B012453EC182B51EC100B83
:101AA000FEF773FD9DED060B41EC190B53EC182B63
:101AB00051EC100BFEF70AFE53EC192BFEF70CFE4F
:101AC000CDE906012FE06848A0421FDD02249FED0A
:101AD000689B9DED060B53EC192B51EC100BFEF798
:101AE000D6FB53EC182BFEF750FD9DED060B41EC99
:101AF000180B53EC192B51EC100BFEF7E7FD53ECD0
:101B0000182BFEF7E9FDCDE906010CE09DED060B73
:101B1000032453EC102B9FED580B51EC100BFEF7E8
:101B2000DBFDCDE906019DED060B53EC102B51ECCE
:101B3000100BFEF7ACFB41EC180B53EC182BFEF727
:101B4000A6FB41EC190B4E480621B0EE490AF0EE17
:101B5000690A784400F0DBF953EC182B51EC100BB8
:101B6000FEF795FB41EC180B4648B0EE490AF0EE43
:101B7000690A0521784400F0CAF953EC192B51EC9D
:101B8000100BFEF784FB41EC100B51EC180B53ECDF
:101B9000102B002C0EDAFEF7F8FC9DED061B53EC23
:101BA000112BFEF774FB9DED061B53EC112BFEF77A
:101BB00090FD35E0FEF7E9FC9DED061B53EC112B83
:101BC000FEF765FB41EC100B2F48784400EBC40096
:101BD00090ED001B51EC100B53EC112BFEF776FD32
:101BE0009DED061B53EC112BFEF770FD41EC100B25
:101BF0002648784400EBC40090ED001B51EC100B1C
:101C000053EC112BFEF765FD41EC100B002DA2BF2C
:101C1000BDEC068B02B070BD51EC100B81F00041A1
:101C200041EC100B01E70000000010440000F07FC1
:101C3000182D4454FB21F93F182D4454FB21F9BFC2
:101C40000000DC3F0000203E0000F33F00000000E9
:101C5000000000000000F03F0000E63F0000000030
:101C60000000000000000040008003400000000071
:101C7000000000000000F83F000000000000F0BF7E
:101C800002140000B813000042130000FA12000012
:101C900070B56B4E2DED040B2DED028B82B0DDF88F
:101CA0001CC0DDE905235C422CF000411C4341EAE5
:101CB000D474049D22F00040B44205D86C422C43F9
:101CC00040EAD474B4420BD99DED061B9DED040B84
:101CD00002B0BDEC028B04B0BDE8704000F09DB9CD
:101CE000ACF14054A4F17F641C430BD0022404EAFD
:101CF000AC7444EAD27405439FED538B9FED542B93
:101D000007D015E09DED040B51EC100B00F0C6F967
:101D100042E0002C11BF012C9DED040B02B0BDEC84
:101D2000028B04BF04B070BD022C38D0032C3BD012
:101D30000B439FED491B9FED4A0B0AD0B14218D1CE
:101D4000B04209D121F0804120F0804007910590F8
:101D50000FE0002A15DA10E0434B7B44002C08BF4B
:101D600093ED000B0DD0012C10D0022C17D0032CBA
:101D70001AD0B0421DD1002A03DAB0EE410AF0EECB
:101D8000610A02B0BDEC028B04B070BD93ED000B94
:101D900051EC100B81F0004141EC100BF1E7B0EE7B
:101DA000480AF0EE680AECE7B0EE420AF0EE620A8A
:101DB000E7E7401A00153C28C8BF8DED000B19DC81
:101DC000BCF1000FBEBF10F13C0F9FED290B8DED54
:101DD000000B0FDB9DED060B53EC102B9DED040B60
:101DE00051EC100BFEF778FC00F060F900F056F9AA
:101DF000CDE90001002C08BF9DED000BC1D0012CE6
:101E000010D0022C9FED1C0B53EC102B9DED000B02
:101E100051EC100B0DD0FEF759FC53EC182BFEF7CC
:101E200055FCB9E7019880F0004001909DED000B52
:101E3000A7E7FEF74BFC53EC182BFEF74AFCABE789
:101E40000000F07F00000000182D4454FB210940E1
:101E5000182D4454FB2109C0182D4454FB21F9BF0F
:101E6000182D4454FB21F93F2A1200000000000005
:101E70000000000000000000075C143326A6A13C0F
:101E80002DED020B019820F0004001909DED000B1C
:101E900002B0704700B52DED048BB0EE409AF0EE25
:101EA000609A83B051EC190BFEF785FC41EC180BDE
:101EB00018EE100A18EE901A8DED008B002818BF4E
:101EC0000120084320F00040C0F17F6000F1E040B5
:101ED000C00F14D019EE101A19EE900A8DED009B68
:101EE000002918BF0121084320F00040C0F17F60A5
:101EF00000F1E040C00F04BF012000F0C9F8B0EECF
:101F0000480A03B0F0EE680ABDEC048B00BD70B562
:101F100004462DED028B4D1E00EBC500B0EE408A4D
:101F2000F0EE608A90ED000B35F0060017D053EC10
:101F3000182B51EC100BFEF7AAF941EC100B6D1E9B
:101F400004EBC50090ED001B51EC100B53EC112B72
:101F5000FEF71BFB41EC100B35F00600E7D1022D1C
:101F600036D0042D1CD0062D1CBFBDEC028B70BDDD
:101F700053EC182B51EC100BFEF789F994ED0A1B6A
:101F800053EC112BFEF701FB53EC182BFEF77FF9F6
:101F900094ED081B53EC112BFEF7F7FA41EC100BF4
:101FA00053EC182B51EC100BFEF771F994ED061B56
:101FB00053EC112BFEF7E9FA53EC182BFEF767F9F7
:101FC00094ED040B53EC102BFEF7DFFA41EC100BF1
:101FD00053EC182B51EC100BFEF759F994ED021B42
:101FE00053EC112BFEF7D1FA53EC182BFEF74FF9F7
:101FF00094ED001B53EC112BFEF7C7FABDEC028BDE
:1020000041EC100B70BD10B553EC102B51EC100BC4
:10201000FEF7BBFA41EC100B10BD10B553EC112BC1
:1020200051EC100BFEF7B1FA41EC100B10BD0000A3
:102030009FED050B10B553EC102B51EC100BFEF778
:102040004BFB41EC100B10BD000000000000000035
:102050009FED050B10B553EC102B51EC100BFEF758
:1020600016F941EC100B10BD00000000000000103C
:1020700002E008C8121F08C1002AFAD17047704751
:10208000002001E001C1121F002AFBD170470000AF
:1020900001490860704700007000002010B541EC55
:1020A000100BFFF789FC51EC100B10BD82B0CDE98D
:1020B000000121F0004001909DED000B02B051ECB9
:1020C000100B704710B5FF4CFF482DED108B94EDB1
:1020D000010AD4ED010A20EE20FA94ED010AD4EDB4
:1020E000020A20EE20CA94ED010AD4ED030A60EE44
:1020F00020BA94ED010AD4ED040A60EE20CA94EDF2
:10210000020AD4ED020A20EE20DA94ED020AD4EDA0
:10211000030A20EE209A94ED020AD4ED040A20EE80
:1021200020BA94ED030AD4ED030A60EE20AA94EDE0
:10213000030AD4ED040A20EE20AA94ED040AD4ED9B
:10214000040A60EE209A90ED040A84ED080A90EDEE
:10215000050A84ED090A90ED060A84ED0A0AB0F931
:10216000001000EE101AB8EEC00A84ED0B0AB0F9A8
:10217000021000EE101AB8EEC00A84ED0C0AB0F995
:10218000041000EE101AB8EEC00A84ED0D0AB0F982
:10219000061000EE101AB8EEC00A84ED0E0AB0F96F
:1021A000081000EE101AB8EEC00A84ED0F0AB0F95C
:1021B0000A0000EE100AB8EEC00A84ED100AFEF71D
:1021C0006FFCA064A06C616C401A00EE100AB8EEBF
:1021D000400ADFEDBE0AA06CC0EE208A606494ED78
:1021E0000B0AD4ED0B0A94ED0C1A20EE200AD4ED64
:1021F0000C0A00EE810AD4ED0D0A94ED0D1A00EEE2
:10220000810A00F059FBD4ED0B0A60EE800AC4EDA0
:102210000B0AD4ED0C0A60EE800AC4ED0C0AD4ED72
:102220000D0A20EE800A84ED0D0A9FEDA90AB6EE94
:10223000001A84ED0E0A84ED0F0A84ED100A71EE87
:102240006A0A94ED0E0AB0EE008A39EE6CEA20EECE
:10225000080A70EEE9EA7BEE2B1A31EE4D1A60EEB9
:102260002E0A94ED0F0A31EE692A71EE6ADA20EE39
:10227000080A40EE0E0A94ED100A20EE080A40EE1D
:10228000210A94ED0E0A79EE2C1A7BEE6BCA20EE31
:10229000080A60EEA00A20EE210AD4ED0F1A61EEC2
:1022A000881A01EE820AD4ED101A3AEE4C2A61EE39
:1022B000881A01EE820AD4ED0E1A3AEE0C2A61EE6B
:1022C000881A40EE000A21EEAC9AD4ED0F1A10EEF7
:1022D000900A61EE881A01EE829AD4ED101A61EE2E
:1022E000881A01EEAD9AFEF755F841EC100BFFF796
:1022F000D1FD51EC100BFEF779F87FEE4D0A00EEA0
:10230000100A7CEE0A3A94ED104A70EEEA0A60EE8A
:10231000081A29EE080A63EE882A30EEA93A61EE1F
:102320008E0A21EEAE1A2CEE882A40EE230A7BEEAE
:102330008B3A00EE2C1A61EEA31AD4ED0D3A40EE62
:102340002D1A94ED0C0A20EE030A03EEE20AD4EDF6
:102350000F3A63EEA13A44EE603A94ED0B4A30EE48
:10236000230AD4ED0D3A63EE823AB5EEC00A44EE8C
:10237000433A94ED103A94ED0E4A23EE013A04EEFE
:10238000613A73EE831A94ED0B3A63EE222A94EDD0
:102390000C3A43EE422A94ED0E2A62EE200A94EDA6
:1023A0000F2A42EE410A72EEA00AF1EE10FA41D075
:1023B000F5EEC01AF1EE10FA3CD0F5EEC00AF1EEDF
:1023C00010FA37D09FED431A94ED052A60EE012AEA
:1023D00002EEA82A61EE812A84ED052A94ED062AF0
:1023E00002EEA82A84ED062A20EE812A94ED071A2F
:1023F00002EE281A84ED071A94ED081A00EE081A66
:1024000094ED050A31EE000A84ED080A94ED090AFC
:1024100094ED061A01EE880A30EE010A84ED090AED
:1024200094ED0A0A00EE880AD4ED070A30EE200A7D
:1024300084ED0A0A94ED020AD4ED080A94ED091A13
:1024400094ED013A20EEC00AD4ED030AD4ED021A4D
:1024500094ED032A00EEC10AD4ED040A94ED0A1AA1
:1024600000EEC10AD4ED080A94ED0A1A00EE283AEB
:1024700094ED010A20EE200AD4ED030A00EE810A51
:10248000D4ED040A94ED091A00EEC10AD4ED090A4C
:1024900094ED0A1A40EE281A94ED010A20EE200A63
:1024A000D4ED020A00EEC10AD4ED040A94ED081A34
:1024B00000EE810AD4ED0A0A00EE282A94ED010A02
:1024C0000AE0000000000020CC0000200000FA44D8
:1024D000000000000AD7233C20EE200AD4ED020AB7
:1024E00094ED091AD4ED042A00EE810AD4ED030A12
:1024F00094ED081A00EEC10A40EE282A23EE030AE2
:1025000001EEA10A02EE020A02EEA20A00F0D4F9DC
:1025100063EE000AC4ED010A61EE800AC4ED020A0E
:1025200062EE000A22EE800AC4ED030A84ED040A7A
:10253000BDEC108B10BD000070B5564C2DED068B18
:10254000F8EE008AB0EE008AB7EE00AA94ED030A16
:10255000D4ED030A94ED041A20EE280A20EE200A96
:10256000D4ED040A60EE880A00EEC10A30EE0A0AD1
:1025700010EE100AFDF70EFF94ED020AD4ED030AE7
:1025800094ED041A20EE080A41EC190B20EE200A03
:10259000D4ED010A60EE880A00EE810A10EE100AFE
:1025A000FDF7F8FE41EC100BB0EE491AF0EE691A97
:1025B000FFF76EFB9FED389B51EC100B53EC192B82
:1025C000FDF765FEFDF712FF354D286394ED020A15
:1025D000D4ED040A94ED031A20EE280A20EE200A16
:1025E000D4ED010A60EE880A00EE810A10EE100AAE
:1025F000FDF7D0FE41EC100BFFF72EF853EC192B32
:1026000051EC100BFDF743FEFDF7F0FEE86294ED90
:10261000020AD4ED020A94ED031A20EE280A20EEF5
:10262000200AD4ED030A60EE880A00EEC10A30EEFB
:102630000A0A10EE100AFDF7ADFE94ED030AD4ED80
:10264000040A94ED021A20EE080A41EC190B20EE60
:10265000200AD4ED010A60EE880A00EE810A10EE2D
:10266000100AFDF797FE41EC100BB0EE491AF0EEA0
:10267000691AFFF70DFB9FED0B1B51EC100B53EC90
:10268000112BFDF704FEFDF7B1FEA862BDEC068B31
:1026900070BD0000000000206666666666A64CC03D
:1026A000CC0000206666666666A64C4010B562489F
:1026B0002DED068BB0F90610B0F908009FED5F8B89
:1026C0009FED60AA604C00295ADADFED609A9FED19
:1026D000609A002822DA91FBF0F0FDF74AFE41EC07
:1026E000100BFFF7CDFB53EC182B51EC100BFDF743
:1026F00065FE06D884ED01AAC4ED029A9FED550A45
:1027000026E09FED550A84ED010AC4ED029A9FED83
:10271000530A84ED030A9FED520A2EE01CDD91FB63
:10272000F0F0FDF726FE41EC100BFFF7A9FB53EC90
:10273000182B51EC100BFDF741FE10D89FED490A04
:1027400084ED010A9FED480A84ED020A9FED470AD5
:1027500084ED030A84ED049ABDEC068B10BD9FED59
:10276000440A84ED010A9FED430A84ED020A9FEDBD
:10277000420A84ED030A9FED410A84ED040AEBE767
:10278000EADD00289FED3E9A2ADD91FBF0F0FDF78F
:10279000F0FD41EC100BFFF773FB53EC182B51ECE1
:1027A000100BFDF70BFE0ED89FED360A84ED010AE3
:1027B0009FED350A84ED020A9FED340A84ED030A89
:1027C00084ED04AAC8E79FED320A84ED010A9FED6B
:1027D000310A84ED020A84ED039A9FED2F0ACCE7BB
:1027E000BADA91FBF0F0FDF7C4FD41EC100BFFF7F6
:1027F00047FB53EC182B51EC100BFDF7DFFD0CD809
:102800009FED260A84ED010A9FED250A84ED020A58
:1028100084ED039A9FED230AAFE79FED230A84ED31
:10282000010A9FED220A84ED020A9FED210A84ED40
:10283000030A9FED200AA0E7CC0000200000000062
:102840000000F03F14AE473E000000208FC275BC70
:10285000BE9F7A3F04E78C3B7B140E3FA69BC43B94
:102860005839543FCBA145BEBC7413BCA69BC4BB16
:10287000DF4F0DBF52499DBB7F6A3CBC14D0543F13
:1028800070CE88BCFA7E7ABF6F12033C0AD7A3BC15
:10289000C8987BBF6F12033B5B420E3FBE9F7ABF5F
:1028A000ED0D3E3C14AE47BEE17A54BF4260653C3C
:1028B000A69B44BC04560EBF10EE100AF6EE000AAA
:1028C000074960EE200AA1EB600000EE100A20EE3E
:1028D000801AF7EE080A41EE400A20EE800A70479F
:1028E000DF59375F06220146492000F03DBA10B596
:1028F00030216A2000F068FA0A20FDF7D3FF0D218D
:10290000242000F061FA0A20FDF7CCFF0E212820D8
:1029100000F05AFA0A20FDF7C5FF8E21312000F0A1
:1029200053FA0A20FDF7BEFF01210B2000F07BF8CF
:102930000A20FDF7B7FF002000F059F8102801D059
:10294000012010BD01210B2000F06DF80A20FDF7D9
:10295000A9FF00210A2000F066F80A2000F047F8DD
:1029600008B1022010BD0A20FDF79CFF00210B20BA
:1029700000F059F80B2000F03AF808B1032010BD20
:102980000A20FDF78FFF2421412000F04CF8412060
:1029900000F02DF8242801D0042010BD0A20FDF7F6
:1029A00081FFC021422000F03EF8422000F01FF8D5
:1029B000C02801D0052010BD0A20FDF773FF0021BB
:1029C0002A2000F001FA0A20FDF76CFF00213420D4
:1029D00000F0FAF90A20FDF765FF062203210E2018
:1029E00000F008F96420FDF75DFF002010BD10B570
:1029F0000146322000F0E8F90A20FDF753FF80215C
:102A0000342000F0E1F90A20FDF74CFF352000F0FA
:102A10008BF904460021342000F0D6F90A20FDF796
:102A200041FF204610BD70B50D46044600212A2006
:102A300000F0CAF90220FDF735FF2146292000F0F9
:102A4000C3F90220FDF72EFF2946642000F0BCF9EF
:102A50000220FDF727FF81212A2000F0B5F9BDE80B
:102A600070400A20FDF71EBFFEF728F8FEF75EFD56
:102A7000FEF78CFCFEF7C0FC00F00AF8FFF716FE2C
:102A800000F038F8FFF71EFBFFF756FDF8E70000EF
:102A900030B585B06420FDF705FF752000F044F9DE
:102AA000124900241422887011496846FDF7CBFBB7
:102AB0004FEA0D0505EB4400417815F8140000F0CD
:102AC00083F90120FDF7EEFE641CE4B20A2CF1D379
:102AD000032000F074F9022000F06CF9FFF707FF03
:102AE00000F0D0F805B0002030BD0000000000204C
:102AF0007C2E000810B50E2239493B2000F034F935
:102B0000374800F10E04018849BA2180418849BA4A
:102B10006180818849BAA180C18849BAA1810189AF
:102B2000628B49BA891AE1814189A28B49BA891A13
:102B300021828089E18B40BA401A60822948FFF7E0
:102B4000D1FE2849A4F142004C399FED271ACA6CE6
:102B50008264B1F85010A0F84C10D0F84210016017
:102B6000D0F846104160D0F84A108160B4F90C00EA
:102B700000EE100AA4F14200F8EEC00A80EE810ACD
:102B8000F3EE050A30EE200A80ED030AB4F90E10C8
:102B900000EE101AF8EEC00A9FED140A80EE801ABB
:102BA000DFED130AC1EE201AC0ED041AB4F91010BB
:102BB00001EE101AF8EEC11A81EE801AC1EE201A49
:102BC000C0ED051AB4F9121001EE101AF8EEC11A90
:102BD00081EE801A81EE200A80ED060A10BD000009
:102BE000000100204C0000205CEFA6436F128341DF
:102BF0003333654270B50E4604460146154628201B
:102C000000F0E2F80220FDF74DFE0A21292000F035
:102C1000DBF80220FDF746FE0121642000F0D4F825
:102C20000220FDF73FFE44F08001252000F0CCF8A3
:102C30000220FDF737FE3146262000F0C5F80220BD
:102C4000FDF730FE0321342000F0BEF80220FDF72E
:102C500029FE0321672000F0B7F80220FDF722FECD
:102C600081212A2000F0B0F80620FDF71BFE45F078
:102C70008001272000F0A8F8BDE870400220FDF791
:102C800011BE00002DE9F041264E002706F10E048A
:102C90004FF496750E2223493B2000F065F83188E9
:102CA000A08A49BA0844A0827188E08A49BA0844D7
:102CB000E082B188208B49BA084420833189608B37
:102CC00049BA084460837189A08B49BA0844A0833B
:102CD000B189E08B49BA0844E0830520FDF7E2FDA5
:102CE0007F1CAF42D6DBB4F9140090FBF5F0A08254
:102CF000B4F9160090FBF5F0E082B4F9180090FBEF
:102D0000F5F02083B4F91A0090FBF5F000B260836F
:102D100090FBF5F0A083B4F91E0090FBF5F0E08382
:102D2000BDE8F0810001002038B50446FEF726FB1F
:102D300044F080000A4C3725621C20700123511E8C
:102D400008480095FEF70CFA621C0123511E054845
:102D50000095FEF705FAFEF709FB607838BD000024
:102D60000000002074000020F8B514460D46064609
:102D7000FEF704FB0D4946F08000372608705231FB
:102D8000A1F1510208700123523909480096FEF75B
:102D9000E7F9064923462A46523105480096FEF7D0
:102DA000DFF9FEF7E3FA0020F8BD00000000002084
:102DB00074000020C006010E1C2000F005B8C006FB
:102DC000010E1B20AFF30080F8B50D460446FEF758
:102DD000D5FA04F07F000B4C3726621C20700123CB
:102DE000511E09480096FEF7BBF92570621C0123AD
:102DF000511E05480096FEF7B3F9FEF7B7FA00201A
:102E0000F8BD0000000000207400002000B52DED8A
:102E1000048B83B041EC190BFDF7CDFC41EC180B92
:102E200018EE100A18EE901A8DED008B002818BFCE
:102E30000120084320F00040C0F17F6000F1E04035
:102E4000C00F14D019EE101A19EE900A8DED009BE8
:102E5000002918BF0121084320F00040C0F17F6025
:102E600000F1E040C00F04BF0120FFF711F951EC61
:102E7000180B03B0BDEC048B00BD00006B806B032E
:102E80006C001A041B181C101D026A2000000000B0
:102E9000000000000000000001020304060708090A
:102EA000555555555555C53F7D6FEB0312D6D4BFCB
:102EB0005544880E55C1C93F3B8F68B52882A4BFD1
:102EC00088B20175E0EF493F09F7FD0DE13D023F92
:102ED0004B2D8A1C273A03C0C88A599CE52A00401A
:102EE00059018D1B6C06E6BF82922EB1C5B8B33F67
:102EF0004FBB610567ACDD3F182D4454FB21E93F12
:102F00009BF681D20B73EF3F182D4454FB21F93F00
:102F1000E2652F227F2B7A3C075C143326A6813C86
:102F2000BDCBF07A8807703C075C143326A6913C31
:102F3000C4EB98999999C9BF711623FEC671BCBF9D
:102F40006D9A74AFF2B0B3BF9AFDDE522DDEADBF05
:102F50002F6C6A2C44B4A2BF0D5555555555D53F1D
:102F6000FF8300922449C23F6E204CC5CD45B73F38
:102F7000513DD0A0660DB13FEB0D76244B7BA93FB0
:102F800011DA22E33AAD903F00000000000000009B
:102F9000B02F00080000002074000000702000081E
:102FA0002430000874000020BC04000080200008C9
:102FB000000000000000803F000000000000000052
:102FC0000000000000000000000000000000000001
:102FD00000000000000000000000000000000000F1
:102FE00000000000000000000000000000000000E1
:102FF00000000000000000000000000000000000D1
:103000000000FF00000000000000000000000000C1
:103010000100000010000000000000000024F40087
:0430200000000000AC
:04000005080001AD41
:00000001FF
