:020000040800F2
:10000000B80C00209D0200087F630008E55C000832
:100010007D6300086D210008BD710008000000002C
:1000200000000000000000000000000065650008FE
:100030002B220008000000008163000867650008AB
:10004000B7020008B7020008B7020008B7020008AC
:10005000B7020008B7020008B7020008B70200089C
:10006000B7020008B7020008B702000871210008B3
:100070007D210008B7020008B7020008B702000897
:10008000B70200080000000035200008B702000891
:10009000B7020008B7020008B7020008B70200085C
:1000A000B7020008B7020008B7020008B70200084C
:1000B000B7020008B7020008B7020008B70200083C
:1000C000B7020008B7020008B7020008B70200082C
:1000D000B7020008B7020008B7020008B1710008B3
:1000E000B7020008B7020008B7020008B70200080C
:1000F000B7020008B7020008B702000800000000BD
:1001000000000000B702000800000000B70200086D
:10011000B702000800000000B7020008B70200089C
:10012000B7020008B7020008B7020008B7020008CB
:10013000B70200080000000000000000B70200083D
:10014000B7020008B702000800000000000000002D
:10015000000000000000000000000000000000009F
:10016000000000000000000000000000B7020008CE
:10017000B7020008000000000000000000000000BE
:1001800000000000B70200080000000000000000AE
:10019000000000000000000000000000000000005F
:1001A0000000000000000000B7020008B7020008CD
:1001B000B7020008B7020008B702000800000000FC
:1001C00000000000B702000800000000000000006E
:1001D000B7020008B702000800F002F800F04FF87C
:1001E0000AA090E8000C82448344AAF10107DA4592
:1001F00001D100F044F8AFF2090EBAE80F0013F095
:10020000010F18BFFB1A43F001031847C087000015
:10021000E0870000103A24BF78C878C1FAD85207A6
:1002200024BF30C830C144BF04680C607047000070
:100230000023002400250026103A28BF78C1FBD8EF
:10024000520728BF30C148BF0B607047662908F0CD
:100250009B82002070471FB508F089FA00F044FC2B
:1002600004000020002107F0DBFF401C606000203C
:10027000002107F0BFFFE0601FBD10B510BD00F00A
:100280005FFD1146FFF7E7FF07F0ACFC01F002F855
:1002900003B4FFF7F2FF03BC01F046F809488047BA
:1002A00009480047FEE7FEE7FEE7FEE7FEE7FEE758
:1002B000FEE7FEE7FEE7FEE704480549054A064B70
:1002C00070470000D1650008D9010008B806002079
:1002D000B80C0020B8080020B808002053EA020C2F
:1002E00000F069802DE9F04B4FF00006002B1FBF96
:1002F000B3FA83F503FA05F424FA05F65E4012BF5B
:100300001643B2FA82F502FA05F4C5F120051EBFC4
:1003100022FA05FC44EA0C04203556EA044C4FEA64
:10032000144418BF641C4FF000084FF000099042BD
:1003300071EB030C39D3002919BFB1FA81F701FA27
:1003400007F6B0FA80F700FA07F6C7F120071EBFDC
:1003500020FA07FC46EA0C062037B6FBF4FCA7EBB4
:100360000507103F07F01F0BCBF120060CFA0BFB23
:100370002CFA06F644BFB3460026202FA4BF5E46E3
:100380004FF0000B5BEA060C08BF4FF0010B19EBB6
:100390000B09ABFB027C48EB0608C01B06FB02CC3A
:1003A0000BFB03CC71EB0C01C1E70B460246414647
:1003B0004846BDE8F08B13B54FF000004FF0000148
:1003C000AFF30080BDE81C40704700000FB41CB5BF
:1003D000084B06AA7B4469460090059800F019FB7B
:1003E00004460020694600F027FB20461CBC5DF84F
:1003F00014FB0000610600002DE9F05F8946044609
:100400004FF0000ADFF874B1FB44C0F820A020468A
:10041000E1688847002874D0252806D0D4E9012156
:100420009047206A401C2062F1E700265F46204684
:10043000E16888472028054607DB312D05D2781969
:1004400010F8200C08B10643F1E7B00701D526F0FB
:100450000406C4F81CA00027C4F818A02A2D09D04F
:10046000284607F021F838B304EB8708303DC8F878
:10047000185019E059F8041B204604EB87029161DB
:10048000E1688847012F054618D1E069002820DA85
:1004900026F020061DE0D8F8180000EB800005EBE0
:1004A00040003038C8F818002046E1688847054603
:1004B00006F0FAFF0028EED1012F0AD02E2D08D128
:1004C0002046E16888477F1C0546022F46F020063B
:1004D000C4DBA069002803DA404246F00106A061AF
:1004E000F00701D026F010066C2D0BD0682D09D036
:1004F0004C2D39D06A2D35D0742D35D07A2D33D08E
:1005000016E038E0E1682F4620468847B8420546A5
:1005100009D16C2F26D04FF48060E1680643204655
:100520008847054604E06C2F1AD04FF480700643CC
:100530000DB3A5F14100192802D8203546F4006614
:100540004A462946204626604E46FFF77FFE80B188
:1005500001280BD0F61D26F0070000F1080956E728
:100560004020E4E78020D8E70020D6E706F1040920
:100570004DE7284652E7206ABDE8F09FBC840000A2
:100580004FF0000200B5134694469646203922BF2C
:10059000A0E80C50A0E80C50B1F12001BFF4F7AF77
:1005A000090728BFA0E80C5048BF0CC05DF804EB59
:1005B000890028BF40F8042B08BF704748BF20F8C7
:1005C000022B11F0804F18BF00F8012B70477047C5
:1005D0007047704710B500F08BFA006810BD10B579
:1005E000044600F085FA046010BD70472DE9FF4F06
:1005F0000C461E464FF0FF378BB0D2E90001DDF804
:1006000060800A908A46C1F30A5505B93D4600212B
:1006100008464FF00000BAF1000F00F4400005DA80
:1006200000EB80004FF4400101EA50004FEA90597E
:10063000B9F1010F00DDB9460A9850EA4A000ED020
:1006400044F61050A5F2FF3545432F14B8F1000FC2
:100650001ED07542291E1EDDC9F100021CE0B8F152
:10066000010F4FF0000001D0302103E0F24305E01C
:100670002154401CB042FBDB3046002200212154B3
:100680000B99C1F80880C1E900200FB0BDE8F08FD8
:10069000BD1B6D1CDEE74A4600DA694206A800F081
:1006A000D9FA06AB93E8070003AB83E8070050468E
:1006B0000A9901F08BF88DE80700A0F500501F386B
:1006C00000900398002D0ADD42F21F014A460844BB
:1006D000002303A90390684601F036FB09E0A0F56A
:1006E00000504A461F38002303A90390684601F0D2
:1006F00055FB8DE807000004000C03D04FF0FF30DD
:10070000410800E01046B8F1000F03D0002200922B
:1007100015461EE0751E05D400F0EEF93032625524
:100720006D1EF9D5B3460122084302D000227F1C7A
:1007300004E02078302801D100227F1E002A09978A
:1007400084D01DE0112D07DA00F0D6F93032625561
:100750006D1C50EA0102F5D1084302D00098C8B1DF
:100760000EE00021681E05E0235C625C63542254A5
:10077000401E491C8142F7DBAB46A81B401E099076
:10078000002004F80B000B98099AC0F80880C0E913
:10079000002B7AE711264FF0000857E72DE9F04FBC
:1007A00088460446D21D22F0070191B0D1E900012C
:1007B000CDE90A0106F003FD02460B98C00F01D0F7
:1007C0002D2007E02068810701D52B2002E02021A1
:1007D00001EAC000032A099001D0072A05DB03467D
:1007E0004146204600F0D6F90BE12078800601D57D
:1007F000E06900E00620B8F1650F814606D0B8F147
:10080000660F18D0B8F1670F70D131E00020B9F150
:10081000110F009001DB112301E009F101030AAA85
:1008200001A90CA8FFF7E2FEDDE90C70002609F132
:100830000105834647E001204B4600904FF00047FA
:100840000AAA01A90CA8FFF7D1FEDDE90DB00C99A9
:100850005D46002610B909F101000D18B9EB05003D
:1008600003D4C0F1FF3609F10105A5EB09002BE027
:10087000B9F1010F01DA4FF001090020B9F1110FB0
:100880000090484601DD112300E003460AAA01A9B1
:100890000CA8FFF7ABFEDDE90C704D460026834641
:1008A000207800070AD4AB4500DA5D4601A8012D87
:1008B00004DD411911F8011C302907D04F4502DA37
:1008C00017F1040F04DA012082460FE06D1EEEE7F7
:1008D000002F02DCED1B3E4403E0781CA84200DD43
:1008E0007D1CB81B00F1010A4FF00047207800077B
:1008F00003D4AA4501DB4FF0FF3A0021B7F1004FC6
:100900000DF143088DF8431024D002202B23002F33
:1009100001DA7F422D230A21021EA0F1010000DC32
:100920005FB197FBF1FC97FBF1F201FB1C7C1746D2
:100930000CF1300C08F801CDEEE7A8F101000370CE
:100940002188090501D5452100E06521A0F10108B4
:1009500000F8011C09980FA9A1EB0807FF1D00B1C1
:100960000120411901EBEA70A1693844081A401EC0
:10097000A0612078C00602D42046AFF30080099819
:1009800028B1D4E901219047206A401C20622078D8
:10099000C00622D52046AFF300801EE0002E04DB07
:1009A000B34502DD01A8805D00E03020D4E90121DB
:1009B0009047206A401C2062761CAAF101005FEA81
:1009C000000A0AD100F090F8C0680168405CD4E9E0
:1009D00001219047206A401C2062281EA5F10105D4
:1009E000DCDC07E0D4E9012118F8010B9047206A0C
:1009F000401C2062381EA7F10107F3DC2046AFF34C
:100A00000080032011B041E601694A1C02610878A8
:100A1000704700B58FB0CDE901310021059105493E
:100A20007944CDE9031011466846FFF7E5FC0FB0A5
:100A300000BD0000E5FFFFFF0A6802F8010B0A6035
:100A4000704700000FB4002300B589B00CA90091D5
:100A50000B99CB60214B7B440693214B7B4407933E
:100A600004236FF00042CDE901321E4A7A446B46FE
:100A700008920246002007F0E9FE09B05DF814FB79
:100A800070B506464FF0FF3015460C46324686B02C
:100A90000091CDE9010169460020049004A8FFF708
:100AA000D1FF02460498211825B108B1084600E09C
:100AB00020462860049800280DD0002A02DD009806
:100AC000884208D03246081B69460094CDE90104EB
:100AD00004A8FFF7B7FF06B070BD0000BB0100001F
:100AE000D301000013010000004870477406002085
:100AF000004870475406002030B5B0F10A024FEAB2
:100B0000900E71F100034EEA817EB0EB0E0061EBB6
:100B100091014FEA101E4EEA017E10EB0E0041EBF0
:100B200011114FEA102E4EEA016E10EB0E0041EB50
:100B300011214FEA104E4EEA014E10EB0E0041EB30
:100B40001141401841F100014FEAD00040EA4170E4
:100B50004FEAD10110EB80054FEA810444EA90741A
:100B600044EB01046D1944EB0404521BA3414FF004
:100B7000000348BF0A3200D530BD401C41F10001DE
:100B800030BD10B5044600F001F90068005D00F0CA
:100B9000010010BD2DE9F0411F46044603260168FF
:100BA000072A01F4006004DB08B116A505E016A5CC
:100BB00003E008B115A500E015A521F010002060A4
:100BC000A069C01EA0610FB1401EA0612046AFF316
:100BD00000804FB1D4E9012138469047206A401C7B
:100BE0002062C01C206206E0206AFAE7D4E90121F5
:100BF00015F8010B9047761EF8D22046AFF300801F
:100C0000BDE8F0814E414E006E616E00494E4600D7
:100C1000696E6600426842B1016811F8013B23B178
:100C2000521EC0E90012184670470121C160881E9B
:100C3000704742685AB1C368016843B983688B4200
:100C400005D0491E521CC0E90012002070474FF029
:100C5000FF3070472DE9F047814616468AB0354887
:100C600078440DC88DE80D0032487844801C03ACF0
:100C70000DC884E80D0041F69B300844372190FBF5
:100C8000F1F290FBF1F5A5F1800501FB12041B3C8C
:100C900002D56442012000E00020DFF898A08046E1
:100CA0000027FA44AAF1BE0A0EE0E0070AD0324655
:100CB000684607EB470101230AEB810101F06EF85A
:100CC0008DE8070064107F1C002CEED1194F7F4483
:100CD000AE3F19E0E80715D007EB04100DF1180A34
:100CE00090E80E008AE80E00C068F04201D1981921
:100CF00008903246012306A903A801F04FF803AB80
:100D000083E807006D10641C002DE3D14FF0010350
:100D100032466946B8F1000F03A802D001F014F87A
:100D200001E001F03BF8C9E90001C9F808200AB068
:100D3000BDE8F087F47C00000048704754060020AE
:100D40007546FFF7F9FFAE4605006946534620F0A9
:100D50000700854618B020B5FFF7AEFABDE8204081
:100D60004FF000064FF000074FF000084FF0000B67
:100D700021F00701AC46ACE8C009ACE8C009ACE81A
:100D8000C009ACE8C0098D467047000010B5FFF7F8
:100D9000ABFE001D10BD00BF897400002DE9FF4FA0
:100DA00006468BB00878FF2806D0491C2D2805D0B0
:100DB00000244FF0000908E000200CE00124F8E7CF
:100DC00009EB8903491C00EB43090878FF28F7D198
:100DD00014B1C9F100008146107800252C46AA46BE
:100DE00029462D2801D02B2804D1521C2D2813D0A0
:100DF000002082468B461078FF280FD04FF0000C61
:100E00000A21521CA5FB017804FB018105FB0C1192
:100E1000C5194BEB0104EEE70120EAE70021084683
:100E20004FF00000BAF1000F02D000EB8000400844
:100E3000C0F38157012F01DD4FF0FF370E9955EABE
:100E4000040009EB01080BD04FF0020918F5FA7FF6
:100E500016DA4FEACA70002F706008DD012007E043
:100E60004FEACA70C6E900B00FB0BDE8F08F0020AD
:100E70003060FFF73DFEC0F800901821084616E0EC
:100E8000B8F5FA7F18DD002F02DAF748784401E060
:100E9000F6487844D0E90010C6E9001040EACA706C
:100EA0007060FFF725FEC0F80090142108460FB0CF
:100EB000BDE8F04F07F065BC002108464FF0000088
:100EC000B8F10001099002DAC7F1000200E03A46E9
:100ED00001DAC8F1000106A8FFF7BCFE06AB93E8F3
:100EE000070003AB83E8070044F23E005BEA04011D
:100EF0000090584604D144F21E012C465D460091F4
:100F0000210C0904014306D10099240444EA154444
:100F10002D041039009104F07F41014306D100995E
:100F2000240244EA15642D020839009104F070414E
:100F3000014306D10099240144EA15742D01091FCB
:100F4000009104F04041014306D10099A40044EA15
:100F50009574AD00891E009104F00041084304D14E
:100F600000986D196441401E00904FF001033A460D
:100F70006846B8F1000FCDE9014503A902DD00F094
:100F800022FF01E000F0F5FEBAF1000F04460D4625
:100F900001D084F00044002108464FF00000099978
:100FA00040F2FF77484010F00C0F07D124F00040CA
:100FB000284303D0C4F30A50B84212D1FFF798FD7A
:100FC000C0F80090C4F30A50B8420AD1A848784447
:100FD000D0E90010C6E9001004F000410843706039
:100FE00042E7C6E900543FE72DE9FF4F1F464FF0A7
:100FF000000A4FF0FF38454691B0D7E90146CDF8D9
:101000003CA0FFF771FDC0680168405C1090B969B1
:1010100012986D1C8847396A814688470028F6D1A6
:10102000B9F1FF3F0AD0002E24F4D06411DDB9F1EC
:101030002B0F08D0B9F12D0F0BD102E0404615B0AF
:1010400013E744F48064B96912986D1C8847761ED2
:101050008146600504A901D52D2000E02B20002E3B
:1010600001F1010B0DF130088DF810003FDDB9F1F1
:10107000690F08D0B9F1490F05D0B9F16E0F02D050
:10108000B9F14E0F1CD13B4601A8009580E85002F3
:10109000DDE912126FF0020007F0DCFBC11CCED1BB
:1010A0000EE0B96912986D1C884781461398761E28
:1010B00044F4007405600F98401C002E0F9016DD5C
:1010C000B9F1300FEDD0B9F1780F02D0B9F1580F66
:1010D0000DD10F9801280AD13B46CDE90054DDE936
:1010E0001212001F029607F0B3FBC11CA7D1109982
:1010F00089453ED144F0800406E01399681CAAF1AA
:10110000010A44F400740860B9696D1C1298761ED7
:10111000884730288146F0D02BE01099894505D1C9
:10112000200603D4761E44F0800418E0484606F0FA
:10113000BBF908B3761E0DF123018B4544F400740E
:1011400008D2A9F130000BF8010B200607D5AAF14F
:10115000010003E0200602D40AF101008246A00546
:1011600002D51399681C0860B96912986D1C8847EC
:101170008146002ED1DC53E0002E51DDB9F1650F20
:1011800002D0B9F1450F4BD1A00549D5B9696D1C05
:101190001298761E24F440748847002E81460CDD98
:1011A0002B2804D0B9F12D0F07D144F48074B9690C
:1011B00012986D1C8847761E8146E00501D52D21C9
:1011C00000E02B2108F8011BCDF8008021E0761EFD
:1011D0000DF13901884544F400740CD2A9F13000B6
:1011E00010F0FF0088F8000002D10099884509D965
:1011F00008F1010806E0E00501D51E4801E042F2D1
:101200000F708246B96912986D1C88478146139801
:101210000560002E04DD484606F046F90028D6D1C8
:10122000F96912988847FF2053468BF8000088F828
:10123000000000200A900B9004AA0CA90AA8FFF74E
:10124000ADFDA00502D46FF00100F8E614F0240F04
:1012500012D0E0071CD13868DDE90A12031D3B609B
:101260000068C0E9001213E0647B0000567B0000B8
:101270001A7A0000F1D8FFFF0AA9684606F0E8F8DC
:10128000E00705D13868009A011D396000680260E6
:101290002846D4E610B50446AFF300802046BDE8EA
:1012A0001040FEF7F5BF00004FF0013C50F8042B52
:1012B00051F8043B9A4221D1A2EB0C03934313EA69
:1012C000CC1317D150F8042B51F8043B9A4215D196
:1012D000A2EB0C03934313EACC130BD150F8042B6D
:1012E00051F8043B9A4209D1A2EB0C03934313EA51
:1012F000CC13DBD04FF00000704700BFD01A01BA0A
:10130000B1FA81F101F0180122FA01F0CB40C1F1EC
:101310002001DBB2C0B2C01A2CFA01F3D11A9143FA
:1013200011EAC311E6D1704701491820ABBEFEE7B0
:10133000260002002DE9FF4F1F464FF03C0987B001
:101340004FF00042DDE9141001F10108DDF858A06A
:1013500002EA40500390002005908346054604466B
:101360000490B969461E08988847AAF1010A0290BC
:10137000BAF1000F3BDD02982E2815D0102100F0A5
:1013800017FA00282EDB4FF0010B0599014317D007
:10139000B9F1000F0BDB4A46C11700F0F6F905431F
:1013A0000C43A9F1040905E0012004900BE008B109
:1013B00045F0010501200590049820B9361D02E092
:1013C000049800B1361FB969089808F101088847E8
:1013D000BBF1000FAAF1010A0290C9D00999C1F826
:1013E0000080C5E70298702808D0502806D0F96917
:1013F00008988847BBF1000F14D04FE000200290FE
:101400000120BBF1000F049009D0B969089808F1D8
:1014100001088847AAF10109B9F1000F07DCF96951
:10142000089888476FF001000BB0BDE8F08F2B28BB
:1014300004D02D280CD14FF0FF300490B9690898E2
:1014400008F101088847A9F10109B9F1000FE6DDAB
:10145000411CE4D00A2100F0ABF90028DFDB02993F
:1014600008F1010801EB810100EB41000290B9692C
:10147000089888470A2100F09BF9099AA9F1010907
:10148000B9F1000FC2F8008001DD0028E7DAF96940
:10149000089888470499029800FB016655EA040001
:1014A00004D004F04041090002D006E0039898E01F
:1014B000A40044EA9574AD00B61E04F00041080093
:1014C00002D16D196441761E159810F0240F03D0D7
:1014D0004FF00B095C4803E04FF028096FF07D00E6
:1014E0008246564507DAAAEB06018944B9F1410F55
:1014F00001DD4FF0410901200021A9F1010200F0B6
:1015000044F9024628400B462140084301D00121FE
:1015100000E00021501E029143F1FF31284021409C
:10152000084301D0012000E000200299834651EADF
:101530000B014FD0002108464FF00000039900F442
:10154000400039B100EB80004FF4400100EBD07057
:1015500001EA60008015012802DD4FF0FF3000E055
:1015600013D0401C36D0029860B3BBF1000F0CD1F1
:101570004A460120002100F008F928402140084394
:1015800001D0012000E00020E0B101204A46002106
:1015900000F0FBF8034640190A4661412D1A8C41C0
:1015A00011D3B9F1400F09DD159810F0240F02D0C6
:1015B000AAF1340603E0AAF1170600E0761C002524
:1015C0004FF0004406E05B1E42F1FF3220EA0305C3
:1015D00021EA0204CAF10100B04206DA1B4903986D
:1015E00008430190002000900EE0039AC4F3D32139
:1015F000E80A0A43164940EA44500A433146CDE915
:101600000002684605F02DFF159810F0240F0BD04E
:101610001598C00715D13868DDE90012031D3B603D
:101620000068C0E900120CE002A8694605F010FF4E
:101630001598C00705D13868029A011D3960006805
:1016400002604046F0E6000002FCFFFF0000F07F71
:101650000000F03F2DE9FF4F92461D4685B04FF048
:101660000041DDE9124BDDE914727F1E01EA4B50A7
:10167000414940F0FF4940EA0108002122F02000E2
:101680004928049102D04E2828D04CE03BA00126E6
:1016900007C88DE80700A9690698641C88477F1E63
:1016A000014606D41DF8060018B121F02001814240
:1016B0000BD0E96906988847032E34D0082E32D023
:1016C0006FF0010009B0BDE8F08F761C032E01D049
:1016D000082EE0D1601CCAF80000DCE7A969069872
:1016E000641C88477F1E2AD420F02000412826D180
:1016F000A9690698641C88477F1E20D420F020002A
:101700004E281CD1A9690698641C88477F1E48F49E
:10171000002849F48009CAF8004001D4282806D0DE
:10172000E969069888475FEACB7012D022E0A96980
:101730000698641C88477F1E01D4002803DAE969F3
:1017400006988847BCE72928F1D1641CCAF80040F4
:10175000E9E71BF0240F07D028680499031D2B60CC
:101760000068C0E9001805E02868021D2A600068CA
:10177000C0F800902046A5E70000F07F494E46499A
:101780004E495459000000007047B2F120030AD5B9
:10179000C2F1200301FA02F120FA03F300FA02F089
:1017A00041EA0301704700FA03F14FF0000070476F
:1017B0003A2800D2303820F02002412A01D3A2F189
:1017C0003700884201D34FF0FF3070475FEA400C8A
:1017D00008BF91F0000F4FEA8C234FEAC12243EA81
:1017E00051514FEA1C5018BF00F5F0404FEA30004D
:1017F00018BF41F000415FEA6C5C00F02980BCF149
:10180000FF3F08BF40F080407047130C06BF120432
:101810004FF0100C4FF0000C130E04BF12020CF12D
:10182000080C130F04BF12010CF1040C930F04BF3A
:1018300092000CF1020CD30F04BF52000CF1010C0A
:1018400011464FF00002A0F11F00A0EB0C00704702
:1018500011F0004F08BF704731F000413FF4D5AFA1
:101860000B0C06BF09044FF0100C4FF0000C0B0ED0
:1018700004BF09020CF1080C0B0F04BF09010CF1A5
:10188000040C8B0F04BF89000CF1020CCB0F04BFBA
:1018900049000CF1010CCCF12003A0EB0C0022FA62
:1018A00003F302FA0CF241EA030100F10100704770
:1018B00020F07F4C80EA030023F07F47ACEB070366
:1018C00003F57C5300F0004003F1FF032DE980494C
:1018D0004FEA154B09B44FEA144325EA0B4E24EAAC
:1018E00003480FF2042606EB132749083E785FEA07
:1018F000320203FB0667C7F5000707FB06F64FEA4F
:1019000054374FEAD64606F1020607FB066CCCF1C7
:10191000005C4FEA1C472CEA074C07FB06F40CFB63
:1019200006F504EB15464FEA961634BF00204FF03B
:1019300000404FEAD13706FB07FC4FEA1C4C0CFB7A
:101940000BF7D21B03FB0CF761EB07010CFB0EF747
:10195000B0EB074072EB17420CFB08F734BFA2EB69
:101960000742B2EB074261EB17414FEA0C444FEAE2
:10197000910706FB07FC4FEA1C4C0CFB0BF7B0EB86
:10198000C74072EB573203FB0CF734BFA2EBC742E0
:10199000B2EBC74261EB57310CFB0EF7B0EBC7005F
:1019A00072EB57720CFB08F734BFA2EBC702B2EB25
:1019B000C70261EB5771039F4FEA816141EA9211BF
:1019C00004EBCC044FEAD1374FEA826206FB07FCF6
:1019D00042EA90124FEA80604FEA1C4C0CFB0BF776
:1019E000D21B03FB0CF761EB07010CFB0EF7B0EB0E
:1019F000074072EB17420CFB08F734BFA2EB07421B
:101A0000B2EB074261EB17414FEA8C554FEA910761
:101A100004EB9C2406FB07FC4FEA1C4C0CFB0BF769
:101A2000B0EBC74072EB573203FB0CF734BFA2EBAD
:101A3000C742B2EBC74261EB57310CFB0EF7B0EB7C
:101A4000C70072EB57720CFB08F734BFA2EBC7025A
:101A5000B2EBC70261EB577115EB4C254FEA816180
:101A600041EA92114FEA82624FEAD13742EA90127C
:101A700006FB07FC44F100044FEA80604FEA1C4C6F
:101A80000CFB0BF7D21B03FB0CF761EB07010CFB04
:101A90000EF7B0EB074072EB17420CFB08F734BFB0
:101AA000A2EB0742B2EB074261EB174115EB1C15A5
:101AB0004FEA813141EA92414FEA823242EA904252
:101AC0004FEA80304FEA0C7644F1000448EA0343C1
:101AD0004EEA0B484FF0000EB2EB080C71EB030717
:101AE00024BF624639464EEB0E0E4FF0000B001835
:101AF000524149414BEB0B0BB2EB080C71EB030766
:101B00007BF1000B24BF624639464EEB0E0E4FF0C0
:101B1000000B0018524149414BEB0B0BB2EB080C88
:101B200071EB03077BF1000B24BF624639464EEB95
:101B30000E0E51EA020718BF46F0010616EB0E76AC
:101B400055F1000254F1000103D5BDE88901BDE85B
:101B50000088BDE88901BDE80048B619524141EB53
:101B60000101A3F10103704780807F7E7D7C7B7A39
:101B70007978777676757473727171706F6E6E6D39
:101B80006C6C6B6A6A6968686766666564646363DF
:101B900062616160605F5F5E5E5D5D5C5C5B5B5A65
:101BA0005A595958585757565655555554545353D2
:101BB00052525251515050504F4F4F4E4E4D4D4D2D
:101BC0004C4C4C4B4B4B4A4A4A4949494848484778
:101BD00047474746464645454544444444434343B6
:101BE000434242424241414146EA0646A3F5705310
:101BF0004FEA164646EA42564FEAD22242EA41529C
:101C000010B54FEAD121A3F1010300F02FF820F025
:101C1000004000F1020C00F0004701EB00501146BB
:101C2000BCF5006F40EA070000D210BDBAF1000F0A
:101C30000AD01CB503B44FF004004FF004014FF07C
:101C400000000FBCBDE810404FF00001BBF1010FD8
:101C5000B9BF04484FF0FF310348002140EA0700B4
:101C600010BD00BFFFFFEF7F0000F07F002B9C4600
:101C700030D477002BD01CB54FEA370703B44FF0B0
:101C800010004FF01001BAF1000F06D0BCF1000FA8
:101C9000DCBF40F0080040F008014FF000000FBC2E
:101CA000BDE810400BF1010BBBF1010F08BF5FEA6B
:101CB000170722BF12F1010211F101014FF000419B
:101CC00043F1000300F0004043EA00007047F9D3FD
:101CD0005708D0E746EA064613F1400F4FEA16468A
:101CE0001FDD13F1200FDFBF16430A46002120330A
:101CF0005B42BED0C3F1200746EA064602FA07F768
:101D00004FEA164646EA0706C3F1200722FA03F215
:101D100001FA07F721FA03F14FF0000342EA070244
:101D2000A7E746EA020646EA06464FEA164646EAAC
:101D30000106BCBF46EA0646360C4FF000034FF0E2
:101D400000024FF0000194E72DE9804C9A4693463B
:101D500070B491E8380007C831EA400C48BF34EA53
:101D6000430C03D5FFF7A4FDFFF780FFF0BCBDE8EF
:101D7000008C2DE9804C9A46934670B491E8380067
:101D800007C831EA400C48BF34EA430C03D5FFF7DB
:101D90008FFDFFF729FFF0BCBDE8008C2DE9804CDA
:101DA0009A46934670B491E8380007C810F0804F07
:101DB00008BF13F0804F03D100F01AF8FFF756FF69
:101DC000F0BCBDE8008C2DE9804C9A46934670B477
:101DD00091E8380007C810F0804F08BF13F0804F1B
:101DE00003D100F005F8FFF7FFFEF0BCBDE8008C62
:101DF00020F07F4780EA030023F07F4C07EB0C03C1
:101E0000A3F57C5300F00040A3F1FE0392F0000F15
:101E100000F0B38095F0000F00F077802DE90149C4
:101E20004FEA11404FEA144621EA004800FB06FC45
:101E300024EA064708FB06F607FB08F800FB07F74D
:101E400018EB06484CEB164C4FEA124B18EB0748C0
:101E50004FEA15464CEB174022EA0B4E0BFB06FCF3
:101E600025EA06470EFB06F607FB0EFE0BFB07F7FF
:101E70001EEB064E4CEB164C4FF000061EEB074EC9
:101E80004CEB174B18EB0B0840F1000018EB0E0B56
:101E900058EB000840F100008F1A4FF000013CBFE2
:101EA000C943661B14BFB5EB040C00213CBFC943FA
:101EB000F61B4FEA17444EEA8E0E27EA04454FEA16
:101EC0001C4704FB07622CEA074C05FB07F70CFBD9
:101ED00005F604FB0CFC16EB074642EB174216EB2B
:101EE0000C4642EB1C421BEB060658EB020241413A
:101EF00046EA9E0601D5BDE80189B619524141EB7B
:101F00000101A3F10103BDE801894FEA14454FEA3D
:101F1000114724EA054621EA074C05FB07F406FBB6
:101F200007F70CFB06F105FB0CFC11EB074144EB3A
:101F300017444FEA124711EB0C4144EB1C4422EAD0
:101F4000074C05FB07F206FB07F70CFB06F605FB43
:101F50000CFC16EB074642EB174216EB0C4642EB25
:101F60001C456A1854F1000148BF7047B619524128
:101F700041EB0101A3F10103704795F0000F37D049
:101F80004FEA11424FEA144721EA024624EA074C7D
:101F900002FB07F106FB07F70CFB06F402FB0CFC47
:101FA00014EB074441EB17414FEA154714EB0C447F
:101FB00041EB1C4125EA074C02FB07F506FB07F73E
:101FC0000CFB06F602FB0CFC16EB074645EB17452F
:101FD00016EB0C4645EB1C42121951F1000148BFAB
:101FE0007047B619524141EB0101A3F1010370475B
:101FF0004FEA14454FEA114724EA054621EA074C07
:1020000005FB07F106FB07F70CFB06F24FF0000695
:1020100005FB0CFC12EB074241EB174112EB0C42A3
:1020200051EB1C4148BF7047921841EB0101A3F1ED
:102030000103704710B5044800F06AFFBDE8104086
:10204000024800F065BF0000DC00002048010020CD
:1020500070B50446006881688268C1F3400112F0DF
:10206000010F28D039BB816801F00D01012914D17D
:102070008168124A1140891C816021680320086030
:1020800001F02AFE054612E001F026FE401B022860
:102090000DD920688068C00709D0E06D40F01000BD
:1020A000E065206E40F001002066012070BD2068D0
:1020B0008068C007E8D1002070BD0000C0FFFF7F2E
:1020C000F8B50446002000902068816811F0010FE7
:1020D00041D18168214A11422ED18168D5432940DE
:1020E000491C81601E48806800F0E07000020DD538
:1020F0001C481D490068B0FBF1F0401C00EB40009B
:10210000800000E0401E00900028FBD101F0E4FDBB
:1021100006461BE0816811F0010F03D18168294058
:10212000491C816001F0D8FD801B02280ED920686F
:102130000068C043C00709D0E06D40F01000E065C2
:10214000206E40F0010020660120F8BD2068016883
:10215000C943C907DED10020F8BD00003F00008060
:102160000003005010000020400D0300FEE70000B7
:10217000014801F080BB000060030020014801F02D
:102180007ABB0000C00300200D4902688A4201D2D8
:102190000C4901E00B492031D2B21423083AB2FBBA
:1021A000F3F2436C02F01F0223F00303194481642D
:1021B00004498031C16401219140016570470000EC
:1021C00008040240000802400179074A02EB81023C
:1021D0004265054A4432491E826501F01F02012111
:1021E0009140C16570470000FC08024030B5D0E95D
:1021F00013456560446D14B1D0E91645656090F8EB
:10220000444004F01F050124AC40056C6C60046878
:1022100063608368102B036803D099600068C26014
:1022200030BD9A600068C16030BD704772B6FEE78D
:10223000F8B500260446009690F858000D4601288F
:102240000BD0012084F858002046FFF701FF010061
:10225000E06D04D040F010002AE00220F8BD20F428
:10226000885040F00200E06520688268134B1A40F5
:1022700005F080431A4342F000428260104A206811
:102280000EE0009B5B1C0093934209D3E06D20F0AD
:10229000020040F01000E06584F858600120F8BDAD
:1022A0008368DB0FEDD1E06D20F0020040F001000B
:1022B000E06584F858600846F8BD0000C0FFFF3FA5
:1022C00002DE0400704700002DE9F84F4FF00008CF
:1022D0000446CDF800800D4694F85820DFF8EC93C2
:1022E000616947464046012A0AD00126F84A84F827
:1022F000586041B1296A012905D0A36EEBB129E0EC
:102300000220BDE8F88F6868092838D1A96A4FF41F
:10231000785041B12B6801F07C0100EA534008433A
:10232000E96A084302E0296800EA51402168CB6C61
:1023300013400343CB64606621E0C4E91971A96AC4
:10234000286A31B101F07C01401E0843E96A084364
:1023500000E0401E29682B79C1F3846103F01F035C
:1023600099400143A06E401EA066636E43EA0103DC
:10237000636604D12068C16C11401943C1642068B0
:1023800003F0C1FC58B995F8250098B12068C168E0
:1023900095F8262021F4401141EA4251C16020689D
:1023A00003F0B9FC8246206803F0ADFC5AEA000055
:1023B0000DD0FBE095F8260095F82410400540EA82
:1023C00001512068C26822F440121143E6E7A86A6E
:1023D00030B1E86A20B195F8250001285ED003E00D
:1023E00095F82500012804D02068C16821F000710B
:1023F00003E02068C16841F00071C16095F83000C9
:10240000012852D02068016921F002010161AA6807
:1024100029682068B2F1004F38D003F097FC20689B
:10242000416921F00041416120686969C268C2F3D5
:10243000C102520091402A69042A44D000EB820074
:102440002B68026EDFF88CC203F0F84302EA0C023C
:102450000B431A4342F00041016620682A69A969CA
:1024600000EB8200026E22F080720A430266297F2E
:1024700022682869012923D05FF0000102EB800067
:10248000026E22F000720A4302668FE0002203F01F
:102490005DFC2068416941F00041C4E7E06D40F017
:1024A0002000E0654FF00108A8E7D5E90D100143D1
:1024B0002068026922F4FF7242F002021143A5E78C
:1024C0004FF00071DAE7002103F013FC40032068AD
:1024D0004FF0000172D003F00CFC90FAA0F0B0FABB
:1024E00080F1286842036ED090FAA0F0B0FA80F034
:1024F000814204D100221146206803F03EFC0121F4
:10250000206803F0F6FB400320684FF001015DD026
:1025100003F0EFFB90FAA0F0B0FA80F128684203D4
:1025200059D090FAA0F0B0FA80F0814204D1002294
:102530000121206803F021FC0221206803F0D9FB6F
:10254000400320684FF0020148D003F0D2FB90FA1C
:10255000A0F0B0FA80F12868420344D090FAA0F0CD
:10256000B0FA80F0814204D100220221206803F0F9
:1025700004FC0321206803F0BCFB400320684FF0FB
:10258000030133D003F0B5FB90FAA0F0B0FA80F16C
:10259000286842032FD090FAA0F0B0FA80F0814270
:1025A00004D100220321206803F0E7FB2068816842
:1025B00011F0010F22D0B6E000E004E003F099FB37
:1025C000C0F384618DE7C0F3846091E703F091FB71
:1025D000C0F38461A2E7C0F38460A6E703F089FB3F
:1025E000C0F38461B7E7C0F38460BBE703F081FB0D
:1025F000C0F38461CCE7C0F38460D0E72A7B29680C
:1026000050F8B03FC1F3120C23EA0C0302F0180C8F
:10261000314A22FA0CF20A4013430360E968494543
:102620007ED1286841031CD090FAA0F1B1FA81F163
:10263000491C01F01F0109294FEA403132D8002915
:1026400012D000BF90FAA0F1B1FA81F101F10101BD
:1026500001F01F0106FA01F609D100BFC0F3846141
:1026600009E0C0F38461E3E7C0F38461EEE790FA28
:10267000A0F1B1FA81F101F1010101F01F0146EA77
:10268000816102D1C0F3846003E090FAA0F0B0FA57
:1026900080F000F1010000F01F0000EB400041EA73
:1026A00000513AE000290ED090FAA0F1B1FA81F180
:1026B00001F1010101F01F0106FA01F60ED100BF80
:1026C000C0F384610EE0C0F38461F1E700007F4055
:1026D0000040100400F0FF03FFFF070090FAA0F194
:1026E000B1FA81F101F1010101F01F0146EA8161B6
:1026F00002D1C0F3846003E090FAA0F0B0FA80F059
:1027000000F1010000F01F002B4A00EB400002EB3B
:10271000005041EA000141F00071AA68206800E021
:1027200001E003F013FB25482A68024240D0244808
:102730008168244B01F0E0719A4202D0224B9A4208
:102740001BD10B0219D42268B2F1A04F30D182689C
:1027500041F4000122F0E0720A4382601B481C49E8
:102760000068B0FBF1F0801C00EB4000800000E04E
:10277000401E00900028FBD11AE0164D164BAA42CD
:1027800007D1CD0105D422689A4211D041F0807161
:1027900009E0124DAA420BD14A0209D422689A429A
:1027A00006D041F48001826822F0E0720A43826020
:1027B00084F858704046A4E5000020FE0000088020
:1027C00000030050000021C31000C0901000002042
:1027D000400D0300000052C700010050000084CBF0
:1027E0000249884201D104F0C3BF7047DC000020D9
:1027F000704700002DE9F04104463548806800F03C
:102800001F05206803F07FFA08BB2168C868C96CFF
:1028100000F0004011F4C07F00D190B194F858004E
:10282000012814D0012084F858002046FFF748FC06
:1028300002004FF000030CD084F858301046BDE879
:10284000F081E06D40F02000E0650120F7E7022014
:10285000F5E7E06DC00504D5206E20F00800206685
:1028600000E02366E06D42F20101884340F48050AD
:10287000E065184F21684FF0A046B94201D13046BB
:1028800000E00846884200D01DB9E06D20F48010B9
:10289000E0656020086084F858302068B84200D0B5
:1028A0000646864209D045B1062D06D0072D04D034
:1028B000E06D40F48010E065C0E7C16811F0007F72
:1028C000BCD18168044B194041F008018160B5E733
:1028D0000003005000010050C0FFFF7F2DE9F041D0
:1028E00004464548806800F01F05206803F00BFA95
:1028F00008BB2168C868C96C00F0004011F4C07FB3
:1029000000D190B194F85800012814D0012084F827
:1029100058002046FFF7D4FB01004FF000020CD016
:1029200084F858200846BDE8F081E06D40F02000B2
:10293000E0650120F7E70220F5E7E06DC00504D56A
:10294000206E20F00800206600E02266E06D42F272
:102950000103984340F48050E065284B20684FF015
:10296000A046984201D1374600E00746874200D092
:102970001DB9E76D27F48017E7656027076084F8C5
:1029800058202068C268920203D5426842F48062EF
:102990004260A06908282068426807D022F04002FF
:1029A00042602068426842F0200206E022F02002E5
:1029B00042602068426842F04002426020689842CB
:1029C00001D1324600E00246824209D045B1062DCF
:1029D00006D0072D04D0E06D40F48010E065A1E73B
:1029E000C26812F0007F9DD18268054B1A4042F008
:1029F0000802826096E700000003005000010050CA
:102A0000C0FFFF7F704770472DE9F047044690F8FC
:102A100058009CB00E464FF00009012815D0012047
:102A200084F8580000251795189520684FF0A048A5
:102A300040450ED1284F0097384603F06CF9824686
:102A4000206803F068F960B10EE002201CB0BDE818
:102A5000F087E06D40F02000E06584F858500120D8
:102A6000F4E7BAF1000F09D0E06D40F02000E06516
:102A70004FF0010984F858504846E7E71748326894
:102A800040F61F71002A826822F4604216D094F842
:102A9000383042EA433273681A438260D8F808201B
:102AA000BB6802F0010203F001031A43E2D1B368EC
:102AB00032681A4383688B431A430BE08260D8F86C
:102AC0000820BB6802F0010203F001031A43D1D1D0
:102AD00082688A438260CDE7000100500003005005
:102AE0002DE9F84F00270446009790F85800DFF8CA
:102AF000E0930D46B846012811D0012684F85860AD
:102B0000206803F004F960B1E06D40F02000E0655A
:102B10005FF0010784F858803846BDE8F88F02203E
:102B2000FBE7D5E900210C23206803EA9113184440
:102B3000036B01F01F014FF01F0C0CFA01FCC2F3F4
:102B4000846223EA0C038A4013430363206803F082
:102B5000DEF88246206803F0D2F85AEA00003CD141
:102B6000AA6829682068B2F1004F37D003F0DFF877
:102B70002068416921F00041416120686969C268AB
:102B8000C2F3C102520091402A69042A31D000EBFD
:102B900082002B68026EDFF83CC303F0F84302EAC0
:102BA0000C020B431A4342F00041016620682A6977
:102BB000A96900EB8200026E22F080720A4302666D
:102BC000297F22682869012910D0002102EB8000AA
:102BD000026E22F000720A4302667DE0002203F0DA
:102BE000A6F82068416941F00041C5E74FF0007147
:102BF000ECE7002103F077F8400320684FF0000174
:102C000072D003F070F890FAA0F0B0FA80F1286862
:102C100042036ED090FAA0F0B0FA80F0814204D165
:102C200000221146206803F0A0F80121206803F07B
:102C30005AF8400320684FF001015DD003F053F8CB
:102C400090FAA0F0B0FA80F12868420359D090FAC7
:102C5000A0F0B0FA80F0814204D100220121206866
:102C600003F083F80221206803F03DF84003206858
:102C70004FF0020148D003F036F890FAA0F0B0FA15
:102C800080F12868420344D090FAA0F0B0FA80F0B6
:102C9000814204D100220221206803F066F803215A
:102CA000206803F020F8400320684FF0030133D080
:102CB00003F019F890FAA0F0B0FA80F12868420306
:102CC0002FD090FAA0F0B0FA80F0814204D1002217
:102CD0000321206803F049F82068816811F0010F92
:102CE00022D0ACE000E004E002F0FDFFC0F384611C
:102CF0008DE7C0F3846091E702F0F5FFC0F38461D3
:102D0000A2E7C0F38460A6E702F0EDFFC0F38461A0
:102D1000B7E7C0F38460BBE702F0E5FFC0F384616E
:102D2000CCE7C0F38460D0E72A7B296850F8B03F35
:102D3000C1F3120C23EA0C0302F0180C664A22FAC3
:102D40000CF20A4013430360E968494577D12868CB
:102D500041031CD090FAA0F1B1FA81F1491C01F0B5
:102D60001F0109294FEA403132D8002912D000BF93
:102D700090FAA0F1B1FA81F101F1010101F01F0116
:102D800006FA01F609D100BFC0F3846109E0C0F37F
:102D90008461E3E7C0F38461EEE790FAA0F1B1FA51
:102DA00081F101F1010101F01F0146EA816102D1C7
:102DB000C0F3846003E090FAA0F0B0FA80F000F174
:102DC000010000F01F0000EB400041EA005132E03A
:102DD00000290ED090FAA0F1B1FA81F101F10101C0
:102DE00001F01F0106FA01F606D100BFC0F38461AD
:102DF00006E0C0F38461F1E790FAA0F1B1FA81F145
:102E000001F1010101F01F0146EA816102D1C0F325
:102E1000846003E090FAA0F0B0FA80F000F10100C5
:102E200000F01F002D4A00EB400002EB005041EA89
:102E3000000141F00071AA68206802F078FF28487C
:102E40002A6802423FF466AE26488168264B01F0AC
:102E5000E0719A4202D0254B9A421CD10B021AD43F
:102E60002268B2F1A04F7FF455AE826841F40001B0
:102E700022F0E0720A4382601D481E490068B0FBE0
:102E8000F1F0401C00EB4000800000E0401E00908C
:102E90000028FBD13EE6184D184BAA4207D1CD01C0
:102EA00005D422689A42F5D041F0807109E0144DB2
:102EB000AA42EFD14A02EDD422689A42EAD041F404
:102EC0008001826822F0E0720A43826022E60000FC
:102ED00000007F4000F0FF03FFFF0700000020FE1E
:102EE0000000088000030050000021C31000C090C3
:102EF00010000020400D0300000052C700010050E8
:102F0000000084CB704770470068006C7047000079
:102F10002DE9F05F0446006806684568DFF854B2A2
:102F2000DBF8080000F01F07B0070ED5A8070CD586
:102F3000E06DC00603D4E06D40F40060E06520461B
:102F4000FFF7C0F9216802200860DFF82CA27007A3
:102F50004FF0A04801D5680703D4300737D52807BC
:102F600035D5E06DC00603D4E06D40F40070E06537
:102F7000206802F0D4FE20B32068504501D14246BB
:102F800000E00246824208D03FB1052F05D0092F4C
:102F900003D0504503D1414602E0C16801E001463B
:102FA000C96889040DD4016809070AD502F0AFFE8B
:102FB00058B3E06D40F01000E065206E40F0010075
:102FC00020662046FFF79EFF21680C200860B006AF
:102FD00001D5A80603D4700658D5680656D5E06D0D
:102FE000C00603D4E06D40F40050E0652068C16C79
:102FF00011F4C07F1AD00021894602F090FE0246EB
:103000002068504514D1434613E02068416821F000
:103010000C014160E06D20F48070E065E06DC0045B
:10302000CFD4E06D40F00100E065CAE70121E3E79D
:103030000346834208D03FB1062F05D0072F03D0A7
:10304000504503D1414602E0C16801E00146C9682C
:10305000B9F1000F14D08B0102D58AB18A040FD4C4
:10306000026852060CD589020AD402F048FEE8B381
:10307000E06D40F01000E065206E40F00100206639
:103080002046FFF7ADFB21686020086030060BD5B5
:10309000280609D5E06D40F48030E065204600F058
:1030A00067F9216880200860F0050CD5E8050AD58D
:1030B000E06D40F40030E0652046FFF7A3FC216896
:1030C0004FF480700860B0050CD5A8050AD5E06DF6
:1030D00040F48020E0652046FFF795FC21684FF41E
:1030E00000700860F0062ED5E80600E008E02AD55A
:1030F000E06BD0B1AFB1DBF8080000F4604013E042
:103100002068416821F060014160E06D20F480504A
:10311000E065E06DC005B3D4E06D40F00100E0650E
:10312000AEE72068C068C00750B1E06D40F4806031
:10313000E065206E40F0020020662046FFF7E3FEC7
:10314000216810200860700512D5680510D5E06D63
:1031500040F48040E065206E40F008002066216861
:103160004FF4806008602046BDE8F05FFFF740BB89
:10317000BDE8F09F0003005000010050F8B54FF08B
:10318000000504002E46009502D0E06D10B107E066
:103190000120F8BD204600F0EDF8266684F858605E
:1031A00020688168C1F3407119B18168684A114093
:1031B000816020688168C1F3007189B98168654ABE
:1031C000114041F080518160634864490068B0FB60
:1031D000F1F04000801C00E0401E00900028FBD170
:1031E00020688168C1F3007141B9E16D41F01001BF
:1031F000E165216E41F001012166012502F087FDA4
:10320000E16DC90600D430B1E06D40F01000E0651A
:1032100001252846F8BDE06D20F4807040F00200E2
:10322000E0652068806810F0010F11D14FF0A040D8
:1032300080684B4900F00100896801F001010843F2
:1032400006D148486168826822F47C120A43826091
:10325000E168E06B627F0843A16841EA42310843BC
:1032600094F8241040EA0140012904D1218D3E4AFE
:1032700002EB41410843E16A29B101F47871226B04
:10328000014342EA01002268D168384B19400143EA
:10329000D16020680169626B21F0406111430161D6
:1032A000206802F02CFD70BB207F94F8381080035A
:1032B00040EA41022168C86844F20203984310437F
:1032C000C86020690028206801690AD041F4803173
:1032D0000161206850F8C01F22696FF30D0111438E
:1032E00007E021F480310161206850F8C01F6FF3BE
:1032F0000D01016094F8400001280CD0206801699C
:1033000021F001010161606901282068016B21F051
:103310000F0111D013E0D4E911010843D4E91312CD
:103320001143084321680A6940F2FC739A43104331
:1033300040F001000861E6E7226A521E1143016372
:10334000E06D20F0020040F00100E06561E7000060
:10335000C0FFFF5FC0FFFF7F10000020400D030093
:1033600000010050000300500000FEFF0740F0FF86
:10337000704700002DE9F04198B00446142111A8CF
:10338000FDF7FEF844216846FDF7FAF84FF40041D6
:10339000206800258A03374F0326DFF8DC80374C8E
:1033A000B0F1A04F10D0364B98425FD10F926846D3
:1033B000009100F093FE08B1FEF738FF3868401C1A
:1033C0003860012820D027E00F926846009100F075
:1033D00085FE08B1FEF72AFF3868401C38600128D6
:1033E00007D1E06C40F40050E064E06C00F4005061
:1033F0001690E06C40F00200E064E06C00F0020027
:1034000016904FF4A04022E0E06C40F40050E064DD
:10341000E06C00F400501690E06C40F00100E064B5
:10342000E06C00F001001690E06C40F00200E064F7
:10343000E06C139500F0020016900120CDE9110612
:1034400011A94FF0904000F019FB48F204001395C9
:10345000CDE9110611A9404600F010FB00221146EB
:10346000122000F0A3FD122000F092FD18B0BDE87C
:10347000F08100000000002000040048001002401D
:10348000000100502DE9F04104463848806800F002
:103490001F05206802F03BFC18B102210846BDE878
:1034A000F08194F8580001280CD0012084F85800CD
:1034B0002046FEF705FE01004FF0000304D084F81B
:1034C0005830EBE70220EAE7E06D40F601629043F6
:1034D00040F48070E065264A20684FF0A046904294
:1034E00001D1374600E00746874200D01DB9E76D9D
:1034F00027F48017E765E76DFF0404D5276E27F0F2
:103500000607276600E023661C27076084F858300A
:103510002068904201D1334600E00346834215D033
:10352000A5B1052D12D0092D10D0E36D43F4801301
:10353000E365904200D13046C0688001AED5E06DB1
:1035400020F4005040F48050E065A7E7C268920183
:1035500005D5E26D22F4005242F48052E2658268A1
:10356000044B1A40121D826098E7000000030050CF
:1035700000010050C0FFFF7F2DE9F04790460D4647
:1035800004004FF0000A0FD075B1607901280ED009
:103590004FF0010984F8059002202071A96808F015
:1035A0001006042905D04AE00120BDE8F08702207A
:1035B000FBE700F091FB07465FEA08004FF00308C5
:1035C00009D022E000F088FBC01B012803D9206845
:1035D000406B000411D42068406B0004F2D42168D1
:1035E000686A086418E000BF00F076FBC01B012881
:1035F0000BD92068406B002807DA206940F00800EA
:10360000206184F804800320CFE72068406B002805
:10361000EADB2168686A48642068816C40F2FF3206
:10362000B2409143AA6AB240114381642068C16CE0
:10363000FF22B2409143EA6AB2401143C164E86993
:10364000012808D12268916B1F20B0408143286A6D
:10365000B040084390632068C06B0721B1408843A5
:10366000A969012903D0022957D06969F1B3002162
:103670006B69AA681A430A434FF4807101FA06F392
:1036800098432B79012B00D0002111434FF4007295
:1036900002FA06F398436B79012B00D0002220F444
:1036A0004047286842EA0108022838D057EA000754
:1036B000216808FA06F03843C863206801684FF4AF
:1036C0008042B240914301602268116840F6FE706A
:1036D000B0408143E868B04008431060206801684A
:1036E000C022B24091430160287B00E015E0297CB4
:1036F000C0F3830001F03C0140EA811021680A6EAA
:1037000040F60F73B3409A43B04002430A6684F810
:10371000049000206071504647E70121A8E700F0BF
:103720000FFF0649884202D947F40047C0E7044921
:103730008842BDD947F48047BAE70000006889098C
:1037400000B4C40470B5040003D02079002510B182
:1037500005E0012070BD6571204600F007F80220E9
:103760002071256101202071002070BD08B500681E
:103770000649884208D10648C16C41F48021C164E1
:10378000C06C00F48020009008BD000000100050C4
:103790000010024010B590F8253000210122022BC4
:1037A00003D00421C163012122E003681C6824F0D6
:1037B0000E041C60836C1C6824F480741C60036815
:1037C0001C6824F001041C6090F84430046C03F081
:1037D0001F0302FA03F36360D0E913345C60436DA6
:1037E00033B11C6824F480741C60D0E916345C602A
:1037F00080F82520002280F82420084610BD70B5EE
:1038000090F82520002401212346022A07D0042213
:10381000C26380F8251080F82430012429E0026872
:10382000156825F00E0515600268156825F001057C
:103830001560826C156825F48075156090F8442039
:10384000056C02F01F0201FA02F26A60D0E913254A
:103850005560426D32B1156825F480751560D0E968
:103860001625556080F8251080F82430816B01B151
:103870008847204670BDF0B4016C0C6801680D6883
:1038800090F8442002F01F06042202FA06F32342B5
:1038900011D06B070FD50B689B0603D40B6823F080
:1038A00004030B6090F8441001F01F018A40016C82
:1038B0004A60016B1DE0022303FA06F727424FF02E
:1038C000000C4FF0010218D0AF0716D50C68A40603
:1038D00005D40C6824F00A040C6080F8252090F8C8
:1038E000441001F01F018B40016C4B6080F824C034
:1038F000C16A00291AD0F0BC08470823B34023420C
:1039000014D02B0712D50B6823F00E030B6090F830
:103910004410036C01F01F0102FA01F15960C26307
:1039200080F8252080F824C0416BE2E7F0BC7047A6
:1039300070B504000CD02B4A21681420914209D2A2
:10394000294A0A44B2FBF0F08000606427480AE08C
:10395000012070BD234A52420A44B2FBF0F08000BD
:103960006064204808382064022084F825000A6832
:1039700047F6F0708243D4E902031843D4E90435D2
:103980002B431843A3691843E3691843236A184378
:10399000104308602046FEF7F7FBA0680025B0F54D
:1039A000804F00D16560A16C20790860D4E91301D3
:1039B00041606068401E032808D82046FEF704FCDA
:1039C000606D0560D4E91601416002E06565A5659A
:1039D000E565E563012084F8250084F82450002083
:1039E00070BD000008040240F8FFFDBF0000024067
:1039F00070B5044690F82400002501280CD0012061
:103A000084F8240094F825600020012E06D084F864
:103A100024000225284670BD022070BD022684F8CD
:103A20002560E0632068066826F0010606602046EF
:103A3000FEF7DCFB206B00282068016802D041F013
:103A40000E0106E021F0040101602068016841F0E8
:103A50000A010160A06C0168C90303D5016841F443
:103A600080710160606D18B1016841F4807101607E
:103A70002068016841F001010160CBE72DE9F04FBA
:103A8000DFF82092002301260324A9F1040B85B05E
:103A90000F2709F1040AABF1040EFAE006FA03F568
:103AA0002A407CD091F804C00CF0030CBCF1010F4B
:103AB00002D0BCF1020F26D1D0F808C0CDF800C06A
:103AC0004FEA430C04FA0CF8CDF810C0DDF800C042
:103AD0002CEA080CCDF800C0D1F80C80DDF810C03D
:103AE00008FA0CF8DDF800C048EA0C08C0F80880B5
:103AF000D0F804C02CEA050C0D79C5F300159D40E3
:103B000045EA0C0545600D79ED43AD070ED0C5685B
:103B10004FEA430804FA08FC25EA0C05D1F808C06E
:103B20000CFA08FC4CEA050CC0F80CC00D7905F045
:103B30000305022D16D1DD0800EB850CCDF808C079
:103B4000DCF820805D074FEAD56C07FA0CF528EA0F
:103B500005080D6905FA0CF5DDF808C045EA080509
:103B6000CCF8205005684FEA430CCDF808C004FAA1
:103B70000CFC25EA0C0591F804C00CF00308DDF8F4
:103B800008C008FA0CF848EA0508C0F800804D683B
:103B900015F4403F7CD0444DD5F860C000E077E09C
:103BA0004CF0010CC5F860C02D6E23F0030C05F03D
:103BB000010500953D4D65440295AD684FEA837C53
:103BC0004FEA1C7807FA08FC25EA0C05B0F1904F83
:103BD00006D0DFF8DCC0604505D14FF0010C20E0D5
:103BE0004FF0000C1DE0DFF8CCC0604502D14FF073
:103BF000020C16E0DFF8C0C0604502D14FF0030CA4
:103C00000FE0DFF8B8C0604502D14FF0040C08E0C7
:103C1000DFF8ACC0604502D14FF0050C01E04FF079
:103C2000060C0CFA08FC4CEA050C029DC5F808C00D
:103C3000D9F80050CC46D1F8048095435FEAC828F3
:103C400000D51543CCF80050DAF80050D446D1F82E
:103C5000048095435FEA882800D51543CCF80050CE
:103C6000DBF80050DC46D1F8048095435FEA8838E1
:103C700000D51543CCF80050DEF80050F446D1F8DA
:103C8000048095435FEAC83800D51543CCF800504E
:103C90005B1C0A6832FA03F57FF400AF05B0BDE89B
:103CA000F08F0000080401400010024000000140B5
:103CB0000004004800080048000C004800100048BC
:103CC000001400480069084000D0012070470AB184
:103CD00081617047816270470148806870470000C9
:103CE0000400002090F84120202A24D190F84020A0
:103CF000012A20D0012280F84020242280F841208F
:103D00000268136823F0010313600268136823F448
:103D100080531360026813680B43136001680A68DC
:103D200042F001020A60202180F84110002180F851
:103D30004010084670470220704790F84120202A22
:103D400022D190F84020012A1ED0012280F8402084
:103D5000242280F841200268136823F001031360D5
:103D60000268136823F4706343EA0121116001685B
:103D70000A6842F001020A60202180F84110002107
:103D800080F84010084670470220704770B5040064
:103D900004D094F84100002510B106E0012070BD68
:103DA00084F84050204600F04FF8242084F8410069
:103DB0002068016821F0010101606068216820F03D
:103DC000706008612068816821F400418160E068CA
:103DD0000128A06830D040F4044021688860E06881
:103DE0000228206841682AD021F4006141602068DF
:103DF0004168144A114341602068C16821F40041C0
:103E0000C160D4E904010843A16940EA01202168A6
:103E1000C860D4E907010843216808602068016888
:103E200041F0010101606564202084F841002563B0
:103E300084F84250002070BD40F40040CDE741F4CA
:103E40000061D3E700800002F0B597B0044614216A
:103E500011A8FCF795FB44216846FCF791FB20492B
:103E60002068884239D14020002500900695684698
:103E700000F034F908B1FEF7D9F91A4CE06C40F0C3
:103E80000100E064E06C00F001001690E06C40F08E
:103E90000200E064E06C122600F002001690042795
:103EA0004FF40040CDE91265CDE91457119011A9E6
:103EB000B006FFF7E3FD8020CDE91265CDE9145788
:103EC000119011A90848FFF7D9FDA06D40F400102A
:103ED000A065A06D00F40010169017B0F0BD0000B2
:103EE000005400400010024000040048024881686D
:103EF00042681144816070470400002010B500241E
:103F0000032000F073F80F2000F008F808B1012436
:103F100001E000F025F8204610BD000070B50E4EFF
:103F200005460024706898B14FF47A71B1FBF0F047
:103F30000A490968B1FBF0F000F046FF40B9102DC6
:103F400006D200222946501E00F030F8356000E00D
:103F50000124204670BD0000040000201000002055
:103F60000A4882B0016E41F001010166016E01F064
:103F700001010091816D41F080518165806D00F0FB
:103F80008050009002B000F0A1B800000010024084
:103F9000002809DB00F01F02012191404009800048
:103FA00000F1E020C0F8001170470000F0B40E4BA3
:103FB0001B680C46C3F30223C3F10705042D00D987
:103FC0000425191D072901D2002300E0DB1E01266C
:103FD00006FA05F1491E214099409E40761E164082
:103FE0003143F0BC03F003B90CED00E0064900F0EA
:103FF000070208684FF6FF03184040EA0220034A10
:1040000010430860704700000CED00E00000FA0566
:104010002B492C4B0A6832214A432B4940B1B0F559
:10402000007F086829D020F4C06040F480602CE054
:104030000868C0F34120022804D051F8800F20F412
:10404000807022E0D1F8800020F48070C1F88000F8
:10405000086820F4C06040F400700860B2FBF3F020
:10406000401C00E0401E4A69520501D50028F9D1E4
:10407000486940050AD503207047C0F34120022853
:1040800006D051F8800F40F480700860002070471F
:10409000D1F8800040F48070C1F88000086820F4F6
:1040A000C06040F400700860B2FBF3F0401C00E018
:1040B000401E4A695205DBD50028F9D1D8E7000037
:1040C0001000002040420F0000700040024881684C
:1040D00041F4804181607047007000402DE9F84351
:1040E0000446006800269D4D00035ED5A86D00279C
:1040F000C00008D4A86D40F08050A865A86D0127C5
:1041000000F080500090DFF85892D9F8001041F488
:104110008071C9F80010FFF7DFFD804606E000BFA0
:10412000FFF7DAFDA0EB080002282BD8D9F8000031
:10413000C005F5D5D5F8900010F4407014D0216C6E
:10414000814211D0D5F89000D5F8901020F440703D
:1041500041F48031C5F89010D5F8901021F48031E9
:10416000C5F89010C5F89000C00711D0FFF7B4FD56
:10417000804641F2883907E0FFF7AEFDA0EB080169
:10418000494501D903260BE0D5F890008007F3D507
:10419000D5F89000216C20F440700843C5F89000D9
:1041A0001FB1A86D20F08050A8652078C00707D007
:1041B000D5F88800616820F003000843C5F888003E
:1041C0002078800707D5D5F88800A16820F00C007A
:1041D0000843C5F888002078400707D5D5F888003F
:1041E000E16820F030000843C5F888002078000717
:1041F00007D5D5F88800216920F0C0000843C5F82C
:1042000088002078800607D5D5F88800616920F4F9
:1042100040600843C5F888002078400607D5D5F8E7
:104220008800A16920F440500843C5F88800207830
:10423000000607D5D5F88800E16920F4404008431E
:10424000C5F888002088C00507D5D5F88800216A00
:1042500020F440300843C5F888002088800507D541
:10426000D5F88800616A20F440200843C5F888002A
:10427000208840050FD5D5F88800A16A20F44010A9
:104280000843C5F88800A06AB0F5801F03D1E8682C
:1042900040F48010E860208800050FD5D5F888002C
:1042A000E16A20F440000843C5F88800E06AB0F5F0
:1042B000800F03D1E86840F48010E8602088C004D3
:1042C0000FD5D5F88800216B20F040700843C5F861
:1042D0008800206BB0F1807F03D1E86840F4801043
:1042E000E86020884FF0006180040ED5D5F8880082
:1042F000626B20F040601043C5F88800606B884214
:1043000003D1E86840F48010E860208840040ED5AE
:10431000D5F88800A26B20F040601043C5F88800F3
:10432000A06B884203D1E86840F48010E8602088E0
:1043300000040FD5D5F88800E16B20F04050084309
:10434000C5F88800E06BB0F1805F03D1E86840F405
:104350008030E8603046BDE8F8830000001002407D
:10436000007000402DE9F0470E4605004FF00007B1
:1043700025D0DFF8AC81D8F8000000F00F00B04283
:104380000CD2D8F8001021F00F013143C8F800100A
:10439000D8F8000000F00F00B04210D12968614C3D
:1043A000C80741F2883A5AD06868DFF87C91032840
:1043B00008D0022820682DD0400500282CDB0120E1
:1043C000BDE8F08720688001F9D5E06800F00302BD
:1043D000E068C0F30310401C032A19D0534A00BF01
:1043E000B2FBF0F0E268C2F306225043E268C2F387
:1043F0004162521C5200B0FBF2F0484517D9A06848
:1044000010F0F00F0CD0880711D5A86840B10EE06D
:10441000474AE5E78003D0E700F0BCF8484506D9F5
:10442000A06820F0F00040F08000A0608027A06825
:10443000696820F003000843A060FFF74DFC814647
:1044400006E000BFFFF748FCA0EB090151453AD850
:10445000A068696800F00C00B0EB810FF2D1286809
:10446000810714D5400703D5A06840F4E060A06040
:104470002878000705D5A06820F4605040F4E0607B
:10448000A060A068A96820F0F000084304E0802F35
:1044900003D1A06820F0F000A060D8F800104046DA
:1044A00001F00F01B14216D9016821F00F0131432B
:1044B0000160FFF711FC074607E000BFFFF70CFCA7
:1044C000C11B514501D903207AE7D8F8000000F05C
:1044D0000F00B042F2D12878400705D5A068E968FE
:1044E00020F4E0600843A0602878000706D5A068A3
:1044F000296920F4605040EAC100A06000F04AF849
:10450000A1680C4AC1F30311515C01F01F01C840BE
:104510000949086009480068BDE8F047FFF7FEBC9C
:10452000002002400010024000B4C4040024F40043
:1045300000366E01B0880008100000200400002042
:104540000148006870470000100000200548064937
:1045500000688968054AC1F30221515C01F01F011E
:10456000C84070471000002000100240C0880008BA
:104570000548064900688968054AC1F3C221515CB3
:1045800001F01F01C84070471000002000100240D9
:10459000C0880008184910B58868C0F38102174820
:1045A000012A0BD08A68164BC2F38102022A06D078
:1045B0008A68C2F38102032A03D0002010BD184686
:1045C00010BDCA6802F00304CA68C2F30312521C89
:1045D000032C02D0B0FBF2F001E0B3FBF2F0CA68AA
:1045E000C968C2F306225043C1F34161491C490026
:1045F000B0FBF1F010BD0000001002400024F400F8
:1046000000366E012DE9F84304007AD02078F84D89
:10461000C00747D0A868E96800F00C0001F003016A
:104620000C2802D0082817D001E0032914D06068B4
:10463000B0F5803F17D0B0F5A02F286817D020F430
:1046400080302860286820F4802028606068E0B10D
:10465000FFF742FB064614E02868800322D5606815
:104660000028D2D01EE0286840F48030EDE740F406
:1046700080202860F7E700BFFFF72EFB801B64282F
:1046800070D828688003F7D50CE0FFF725FB0646B5
:1046900005E000BFFFF720FB801B6428F0D82868E6
:1046A0008003F7D4207880074CD5A868E96800F02B
:1046B0000C0001F003010C2802D004280DD001E009
:1046C00002290AD0E068002828682BD040F48070C6
:1046D0002860FFF701FB064619E02868400502D56F
:1046E000E068002891D06868217C20F0FE4040EA14
:1046F00001606860BF480068FFF710FC002800D127
:1047000020E072E1FFF7E8FA801B0228B8D8286899
:104710004005F7D56868217C20F0FE4040EA016042
:1047200068600FE020F480702860FFF7D5FA064635
:1047300005E000BFFFF7D0FA801B0228A0D8286848
:104740004005F7D42078000729D560690028D5F8FE
:10475000940013D040F00100C5F89400FFF7BCFAB4
:10476000064606E090E000BFFFF7B6FA801B02287D
:1047700086D8D5F894008007F6D510E020F0010027
:10478000C5F89400FFF7A8FA064604E0FFF7A4FA7C
:10479000801B022878D8D5F894008007F6D42078BA
:1047A000400761D5A86D0026C00008D4A86D40F070
:1047B0008050A865A86D012600F0805000908E48BA
:1047C0000168C90511D40168804641F48071016017
:1047D000FFF782FA074604E0FFF77EFAC01B0228C3
:1047E00052D8D8F80000C005F6D5A068012815D029
:1047F0000528D5F8900016D020F00100C5F89000EB
:10480000D5F8900020F00400C5F89000A06841F2AF
:104810008838B8B1FFF760FA07460EE0D5F8900087
:1048200040F00100F0E740F00400C5F89000F5E723
:10483000FFF752FAC11B414526D8D5F890008007F2
:10484000F6D50CE0FFF748FA074604E0FFF744FA14
:10485000C11B414518D8D5F890008007F6D41EB189
:10486000A86D20F08050A8652078800629D5A06921
:104870000028D5F8980013D040F00100C5F8980042
:10488000FFF72AFA064606E075E000BFFFF724FAB4
:10489000801B02286FD8D5F898008007F6D510E065
:1048A00020F00100C5F89800FFF716FA064604E06C
:1048B000FFF712FA801B02285DD8D5F89800800710
:1048C000F6D4E069F0B3A968C1F3810103295DD092
:1048D0000228286820F08070286003D0FFF7FCF9D8
:1048E00004464BE0FFF7F8F9064604E0FFF7F4F959
:1048F000801B02283FD828688001F7D4F4E908011A
:104900006FF00F0202EB01110843218A520449089B
:1049100002EB4151A26841EA02210843217D4FF098
:104920007E42490802EB41610843217B40EAC160B5
:10493000E968324A11400843E860286840F0807016
:10494000286000E05EE0E86840F08070E860FFF713
:10495000C3F9044605E000BFFFF7BEF9001B0228BB
:1049600009D828688001F7D54CE000BFFFF7B4F9FB
:10497000001B022802D90320BDE8F88328688001C3
:10498000F4D4E8681E490840E8603BE00128F3D011
:10499000E868226A00F00301914226D1616A00F0C2
:1049A000F0020901103991421FD1A26A00F4FE41C0
:1049B000B1EB022F19D194F82C2000F07841B1EB23
:1049C000C26F12D1218E00F4C00249084905A1F539
:1049D0000011914209D194F8341000F0C0604908E8
:1049E0004906A1F1007181420CD00120C4E700000A
:1049F0000010024004000020007000400C809F0165
:104A0000FCFFEEFE0020B7E790F85D00704770B540
:104A1000040009D0606A002540B125616561A56286
:104A200094F85D0040B10CE0012070BD6068B0F505
:104A3000827FF4D0E561F2E784F85C50204600F014
:104A40005BF8022084F85D002068016821F04001D5
:104A50000160E1684FF4E062914201D9002001E079
:104A60004FF48050B1F5706F02D0914200D0A56232
:104A7000A188228901F4827102F404421143227C4C
:104A800002F002021143227D02F001021143228B47
:104A900002F400721143227F02F03802114394F8AD
:104AA000202002F080021143228D02F400521143B3
:104AB00022681160A169042202EA114194F82420BD
:104AC00000F4805002F01002114394F8342002F0F8
:104AD00008021143A28902F4706211430143206865
:104AE00041602068C16921F40061C161256601202F
:104AF00084F85D00002070BD10B586B00446142116
:104B00006846FBF73DFD1249206888421DD11148D7
:104B1000016E41F480510166016E01F480510591EE
:104B2000C16C41F00201C164C06C694600F0020032
:104B30000590382000900220019000200290039000
:104B4000052004900448FEF799FF06B010BD000050
:104B50000030014000100240000400482DE9FF5FD2
:104B6000044690F85C0000260E9F1D4693464FF0C9
:104B7000010901280FD04FF0010A84F85CA0FFF76B
:104B8000ABF8804694F85D00616801280DD0B1F55E
:104B9000827F08D103E0022004B0BDE8F09FA16845
:104BA00009B9042801D0022609E10198002876D02D
:104BB000BBF1000FFBD0002DF9D094F85D00042864
:104BC00002D0052084F85D0000202066C4F840B0C3
:104BD000A4F84650A4F844500199A163E587A5873D
:104BE000E0642065E0684FF4E061884201D8012D5F
:104BF00004D92068426822F4805203E020684268A9
:104C000042F48052426020680268520603D402686F
:104C100042F040020260E0688842606848D908B10A
:104C2000012D3DD1A06B21680088C860A06B801C5D
:104C3000A063E08F401EE08732E02068816889072A
:104C40000FD5E18F69B1B9F1010F0AD1A16B0988C4
:104C5000C160A06B801CA063E08F401EE0874FF016
:104C6000000920688168C9070FD0B4F8461061B107
:104C7000C068216C0880206C801C2064B4F8460059
:104C8000401EA4F846004FF00109FFF725F8A0EBFD
:104C90000800B84204D3781C02D003268DE08AE0D5
:104CA000E08F0028C9D1B4F846000028C5D177E0CC
:104CB00008B1012D6DD1E08F0128A06B08D92168C2
:104CC0000088C860A06B801CA063E08F801E07E096
:104CD000216800780873A06B401CA063E08F401E21
:104CE000E08756E02068816889071AD5E18FC1B155
:104CF000B9F1010F15D1E18F0129A16B07D90988FD
:104D0000C160A06B801CA063E08F801E06E0097864
:104D10000173A06B401CA063E08F401EE0874FF042
:104D2000000920688168C90728D0B4F8461029B363
:104D3000B4F84610012914D9C068216C0880206C91
:104D4000801C2064B4F84600801EA4F84600B4F825
:104D50004600012810D82068416841F48051416024
:104D60000AE0007B216C0870206C401C2064B4F8C1
:104D70004600401EA4F846004FF00109FEF7ACFFC4
:104D8000A0EB0800B84202D3781C02D085E7002FC0
:104D900083D0E08F0028A5D1B4F846000028A1D127
:104DA00042463946204601F0ECFA10B10126202097
:104DB0002066206E08B1012601E084F85DA0002085
:104DC00084F85C003046E7E610B5401EB0F1807F05
:104DD00001D3012010BD4FF0E02460610F21601766
:104DE00002F005FA0020A06107202061002010BD1C
:104DF00030B590F83C20012A42D0012280F83C20B6
:104E0000CA688B6822F440721A434B6822F48062AD
:104E10001A430B6822F400621A430B6922F4805291
:104E20001A434B6922F400521A430B6B22F480425E
:104E30001A430B8B22F4702242EA0342CB6922F020
:104E400080521A430F4D03680024AB4202D00E4D2E
:104E5000AB4210D10D8D22F4700242EA05520D6A68
:104E600022F080722A434D6A22F000722A43C96AF6
:104E700022F000520A435A6480F83C40002030BDC2
:104E8000022030BD002C014000340140F0B590F804
:104E90003C300027012B0BD0012380F83C301368F5
:104EA000042B23D006DC012B16D0022B06D118E0F0
:104EB0000220F0BD082B1ED0102B21D00024234649
:104EC00026462546012920D0022931D0012700217C
:104ED00080F83C103846F0BD012400266302092505
:104EE000F0E70224012663020A25EBE704240226E8
:104EF00063020B25E6E70824032663020C25E1E79D
:104F00001024042663020D25DCE7D0F800E0DEF86B
:104F100060C051689268B1402CEA040C214041EA1B
:104F20000C01AA4099431A400A43CEF86020CEE70C
:104F3000D0F800E0DEF864C051689268B1402CEA15
:104F4000040C214041EA0C01AA4099431A400A434B
:104F5000CEF86420BBE70000F0B590F83C20012AB1
:104F60003AD0012580F83C50022280F83D200368A9
:104F70005A689C68194E1A4FB34201D0BB4204D103
:104F800022F4700C4A6842EA0C02DFF858C002EAC8
:104F90000C02D1F800C04CEA020CC3F804C002684D
:104FA000B2420DD0B2F1804F0AD00F4B9A4207D0D7
:104FB0000E4B9A4204D0BA4202D00D4B9A4204D111
:104FC000896824F080031943916080F83D500021E6
:104FD00080F83C100846F0BD0220F0BD002C0140D6
:104FE000003401408FFFFFFD000400400008004036
:104FF0000040014010B50446022249B104290ED0F8
:10500000082913D094F84700012816D0012010BDBC
:1050100094F844000128F9D184F844200FE094F872
:1050200045000128F2D184F8452008E094F84600B4
:105030000128EBD184F8462001E084F847200422BF
:10504000206801F038FB2068416C41F40041416464
:105050001049206888420ED0B0F1804F0BD00E4925
:10506000884208D00D49884205D00D49884202D0B7
:105070000C49884207D181680B4A1140062906D0A5
:10508000B1F5803F03D0016841F0010101600020CB
:1050900010BD0000002C014000040040000800404A
:1050A00000340140004001400700010070B5044693
:1050B0000D460068002201F0FEFA2068036A41F202
:1050C00011110B4244F2444206D1036A134203D148
:1050D000436C23F4004343642068036A0B4206D107
:1050E000016A114203D1016821F001010160012030
:1050F0003DB1042D08D0082D09D084F847000020C8
:1051000070BD84F84400FAE784F84500F7E784F8B6
:105110004600F4E710B5040003D094F83D0010B148
:1051200007E0012010BD002084F83C00204600F07C
:1051300023F8022084F83D00211D206801F050FA78
:10514000012084F8480084F83E0084F83F0084F889
:10515000400084F8410084F8420084F8430084F859
:10516000440084F8450084F8460084F8470084F839
:105170003D00002010BD000008B5006806498842C7
:1051800008D10648016E41F400610166006E00F42A
:105190000060009008BD0000002C0140001002409B
:1051A00090F83D10012901D001207047022180F8BC
:1051B0003D1000680F4988420ED0B0F1804F0BD0EF
:1051C0000D49884208D00D49884205D00C498842D3
:1051D00002D00C49884207D181680B4A1140062948
:1051E00006D0B1F5803F03D0016841F001010160B4
:1051F00000207047002C01400004004000080040DF
:1052000000340140004001400700010070B5044631
:1052100090F83C000025012814D0012684F83C6059
:10522000022084F83D0022689068364B184020F434
:105230007F409060086870282ED010DC10F00F0FAF
:1052400003D021E04FF0020070BD4FEA2012072A80
:105250001AD2DFE802F0525252524A3840002A4B2A
:10526000C21A984249D009DCB0F5805F0DD0B0F584
:10527000005F1CD0B0F1101F06D13EE0102A3CD0D8
:10528000202A3AD0502A38D0012584F83D600020E9
:1052900084F83C00284670BDCB68D1E90121206824
:1052A00001F016FA2068816841F0770109E0CB68C7
:1052B000D1E90121206801F00BFA2068816841F4EE
:1052C00080418160E1E7CA684968206801F0AAFB73
:1052D0005021206806E0CA684968206801F0B3FBE5
:1052E0006021206801F0FEF9CFE7CA6849682068AC
:1052F00001F098FB40212068F4E72268014610463F
:10530000F0E7000088FFCEFF2000100010B586B047
:10531000044614216846FBF733F90F492068884298
:1053200017D10E48C16C41F00101C164C06C6946DF
:1053300000F0010005904FF4E06000900220019021
:10534000002002900390062004904FF09040FEF75A
:1053500095FB06B010BD0000002C0140001002407B
:1053600070B5044690F83C0000260D4601280BD08D
:10537000012084F83C000C2A4AD007DC82B1042AC0
:1053800020D0082A06D131E0022070BD102A53D067
:10539000142A63D00126002084F83C00304670BDFA
:1053A000206801F0A9F92068816941F00801816154
:1053B0002068816921F004018161206881692A697E
:1053C000114311E0206801F0E5F92068816941F49A
:1053D000006181612068816921F4806181612068B8
:1053E00081692A6941EA02218161D4E7206801F0DC
:1053F00019FA2068C16941F00801C1612068C169DA
:1054000021F00401C1612068C1692A69114311E0DA
:10541000206801F04FFA2068C16941F40061C16160
:105420002068C16921F48061C1612068C1692A696D
:1054300041EA0221C161AEE7206801F083FA2068E9
:10544000016D41F0080101652068016D21F0040142
:1054500001652068016D2A69114311E0206801F09F
:10546000A9FA2068016D41F4006101652068016DB1
:1054700021F4806101652068016D2A6941EA0221F9
:10548000016588E710B5040003D094F83D0010B121
:1054900007E0012010BD002084F83C00204600F009
:1054A00022F8022084F83D00211D206801F098F8C0
:1054B000012084F8480084F83E0084F83F0084F816
:1054C000400084F8410084F8420084F8430084F8E6
:1054D000440084F8450084F8460084F8470084F8C6
:1054E0003D00002010BD704730B50446022269B16E
:1054F000042912D0082917D00C291CD0102921D03A
:1055000094F84300012824D0012030BD94F83E00D7
:105510000128F9D184F83E201DE094F83F000128CD
:10552000F2D184F83F2016E094F840000128EBD136
:1055300084F840200FE094F841000128E4D184F879
:10554000412008E094F842000128DDD184F842208F
:1055500001E084F843200122206801F09FF8194BF4
:1055600020681949194A984209D0884207D09042C8
:1055700005D0174DA84202D0164DA84203D1456C64
:1055800045F400454564206898420CD0B0F1804F46
:1055900009D0114B984206D0104B984203D0884254
:1055A00001D0904207D181680D4A1140062906D0EA
:1055B000B1F5803F03D0016841F001010160002096
:1055C00030BD0000002C014000340140004001408B
:1055D0000044014000480140000400400008004031
:1055E0000700010030B504460D460068002201F0B6
:1055F00055F8224B41F2111120688A0098420BD0D5
:105600001F4B984208D01F4B984205D01E4B984222
:1056100002D01E4B984209D1036A0B4206D1036A9D
:10562000134203D1436C23F4004343642068036AAC
:105630000B4206D1016A114203D1016821F0010138
:10564000016001205DB1042D0CD0082D0DD00C2D72
:105650000ED0102D0FD084F84300002030BD84F808
:105660003E00FAE784F83F00F7E784F84000F4E7EB
:1056700084F84100F1E784F84200EEE7002C014095
:105680000034014000400140004401400048014016
:1056900090F88410012918D0012180F88410242169
:1056A000C0F8881001680A680B6823F001030B60DA
:1056B00022F0005100224266036819602021C0F8E0
:1056C000881080F88420104670470220704710B57B
:1056D0000446D0F88C00202801D0022010BD61B112
:1056E0005AB10120E06600202067204601F0C2FC8C
:1056F0000028F3D1E16E012901D0012010BD2268FC
:1057000010211162226852E8001F41F0100142E8A6
:105710000013002BF6D110BD064910B5884207D101
:10572000642205490348FFF7D2FF044901200870AD
:1057300010BD0000CC020020C00500201800002091
:10574000704770B5044690F8840001281DD00120F0
:1057500084F884002420C4F8880020680568026862
:1057600022F0010202602068826822F060620A432F
:105770008260204601F07AF9206805602020C4F894
:105780008800002084F8840070BD022070BD70B5D0
:10579000044690F8840001281DD0012084F884007C
:1057A0002420C4F8880020680568026822F00102FD
:1057B00002602068826822F060420A4382602046CC
:1057C00001F054F9206805602020C4F8880000200A
:1057D00084F8840070BD022070BD70477047704728
:1057E0002DE9F04103680446D86919689A6840F6C3
:1057F0000F0528424FF000054FF002060AD1870638
:105800007ED501F0200702F0805C57EA0C0777D0C4
:10581000616F3AE1B24FDFF8CCC2174001EA0C0CDD
:1058200057EA0C0C6CD05FEAC07C0CD05FEAC15C1C
:1058300009D54FF0010CC3F820C0D4F8903043F0E4
:105840000103C4F89030830709D5D30707D0236834
:105850001E62D4F8903043F00403C4F8903043073C
:105860000AD5D30708D0266804233362D4F89030D1
:1058700043F00203C4F8903003070CD501F0200375
:105880003B4308D0266808233362D4F8903043F0B5
:105890000803C4F8903003050BD54B0109D52668E1
:1058A0004FF400633362D4F8903043F02003C4F81F
:1058B0009030D4F89030002B3DD0800609D501F00F
:1058C000200002F08051084303D0616F09B12046E7
:1058D0008847D4F8900021688968490602D410F0FE
:1058E000280F2AD0204601F049FA20688068400637
:1058F0001ED52068083050E8001F21F0400100E06C
:1059000021E040E80012002AF3D1D4F8800078B1F9
:1059100075498163D4F88000FDF771FF00280AD033
:10592000D4F88000816B00E02046BDE8F0410847D4
:105930002046FFF754FFBDE8F0812046FFF74FFFF8
:10594000C4F89050F7E7D4F86CC02027BCF1010FE1
:105950007ED15FEAC06C7BD55FEAC16C78D5102040
:10596000186220688068400645D5D4F88010086821
:1059700040680004000CDED0B4F85C208242DAD922
:10598000A4F85E000868006880062CD4216851E8FD
:10599000000F20F4807041E80002002AF6D1206850
:1059A000083050E8001F21F0010140E80012002AF1
:1059B000F5D12068083050E8001F21F0400140E890
:1059C0000012002AF5D1C4F88C70E566206850E812
:1059D000001F21F0100140E80012002AF6D1D4F88F
:1059E0008000FDF7D7FE2667B4F85C00B4F85E10BF
:1059F000401A81B230E0B4F85C00B4F85E10401A8E
:105A000081B2B4F85E00002895D0002993D02268B6
:105A100052E8000F20F4907042E80003002BF6D10A
:105A20002F4BDB432068083050E8002F1A4040E835
:105A3000002CBCF1000FF5D1C4F88C70E5666567E9
:105A4000226852E8000F20F0100042E8000300E056
:105A500006E0002BF4D126672046FFF75DFE6AE7DB
:105A6000C60209D5560207D54FF4801018622046A9
:105A7000BDE8F041FFF7B2BE03060AD501F080038E
:105A800002F40002134304D0A16F00297FF44CAF4D
:105A900051E7420611D54A060FD52046026852E862
:105AA000001F21F0400142E80013002BF6D1C0F89E
:105AB0008870856700F014F93DE7020206D54A00B8
:105AC00004D52046BDE8F041FFF787BEC001C6D52A
:105AD0000029C4DA2046BDE8F041FFF731BE0000DE
