:020000040800F2
:100000007006002089010008390D0008790A0008EF
:10001000190C00088F020008E7100008000000001B
:100020000000000000000000000000008110000837
:1000300091020008000000007F10000883100008F3
:10004000A3010008A3010008A3010008A301000800
:10005000A3010008A3010008A3010008A3010008F0
:10006000A3010008A3010008A3010008A3010008E0
:10007000A3010008A3010008A3010008A3010008D0
:10008000A3010008A3010008A3010008A3010008C0
:10009000A3010008A3010008A3010008A3010008B0
:1000A000A3010008A3010008A3010008A3010008A0
:1000B000A3010008A3010008A3010008A301000890
:1000C000A3010008A3010008A3010008A301000880
:1000D000A3010008A3010008A3010008A301000870
:1000E000A3010008A3010008A301000800F002F822
:1000F00000F03AF80AA090E8000C82448344AAF188
:100100000107DA4501D100F02FF8AFF2090EBAE885
:100110000F0013F0010F18BFFB1A43F0010318473B
:10012000A0160000C0160000103A24BF78C878C19D
:10013000FAD8520724BF30C830C144BF04680C60ED
:10014000704700000023002400250026103A28BF35
:1001500078C1FBD8520728BF30C148BF0B60704739
:100160001FB51FBD10B510BD00F058F81146FFF7C0
:10017000F7FF00F0C9FF00F076F803B4FFF7F2FFD5
:1001800003BC00F07DF8000009488047094800479B
:10019000FEE7FEE7FEE7FEE7FEE7FEE7FEE7FEE737
:1001A000FEE7FEE704480549054A064B7047000094
:1001B000E5100008ED000008700000207006002027
:1001C00070020020700200204FF0000200B51346BC
:1001D00094469646203922BFA0E80C50A0E80C5067
:1001E000B1F12001BFF4F7AF090728BFA0E80C5018
:1001F00048BF0CC05DF804EB890028BF40F8042B11
:1002000008BF704748BF20F8022B11F0804F18BF7D
:1002100000F8012B7047704770477047754600F033
:100220002BF8AE4605006946534620F00700854688
:1002300018B020B5FFF7B6FFBDE820404FF000062C
:100240004FF000074FF000084FF0000B21F00701BE
:10025000AC46ACE8C009ACE8C009ACE8C009ACE801
:10026000C0098D46704710B50446AFF300802046A4
:10027000BDE81040FFF781BF004870471000002024
:1002800001491820ABBEFEE7260002007047FEE7DA
:10029000704700EBC000C1004FF0E0204161002139
:1002A0008161052101610169C903FCD50421016156
:1002B000704700002DE9F84FDFF8B8910024A9F14C
:1002C000040B23460F2709F1040AABF1040EC9E021
:1002D0000125A5402A40AA427DD1674ED1F804C02D
:1002E000ACEB0608B44532D014DCBCF1030F3AD0B5
:1002F00009DCBCF1000F2AD0BCF1010F1CD0BCF10D
:10030000020F31D11DE0BCF1110F17D0BCF1120F5B
:100310002AD119E0B8F5881F19D006DCB8F5803F5E
:1003200015D0B8F5801F1FD111E0B8F5001F0ED011
:10033000B8F5041F18D10AE0CB6815E0CB681B1D87
:1003400012E0CB6808330FE0CB680C330CE08B680D
:100350002BB1012B4FF0080303D0456104E00423C7
:1003600002E0056100E00023FF2A01D8064601E013
:1003700000F104064FEA840501D9A5F12005D6F85D
:10038000008007FA05FC28EA0C0803FA05F548EA9C
:100390000508C6F800804D68ED0062D5374DAE699E
:1003A00046F00106AE61AD6924F0030605F00105D3
:1003B0000095334D06EB050CDCF80850A607360F08
:1003C00007FA06F825EA0805DFF8B880404503D1AA
:1003D0004FF0000817E044E0DFF8AC80404502D160
:1003E0004FF001080FE0DFF8A480404502D14FF044
:1003F000020808E0DFF89880404502D14FF003087A
:1004000001E04FF0040808FA06F848EA0508CCF8BD
:1004100008804D68D9F80060ED024D4601D51643BD
:1004200000E096432E604D68DAF80060AD02554654
:1004300001D5164300E096432E604D68DBF800605E
:10044000AD035D4601D5164300E096432E604D682E
:10045000DEF80060ED03754601D5164300E09643D3
:100460002E60641C0D682A46E5407FF431AFBDE87C
:10047000F88F000008040140000011100010024035
:100480000000014000080140000C01400010014044
:10049000001401408068084000D0012070470AB174
:1004A000016170470904FBE701488068704700005C
:1004B0000000002002488168027811448160704782
:1004C00000000020074810B5016841F010010160EC
:1004D000032000F05FF80F2000F006F800F024F889
:1004E000002010BD0020024070B50D4D04464FF4B1
:1004F0007A712878B1FBF0F00A490968B1FBF0F095
:1005000000F0A6FA48B9102C07D200222146501E4E
:1005100000F020F800206C6070BD012070BD00006C
:10052000000000200C000020094808B5816941F056
:1005300001018161816901F001010091C16941F00E
:100540008051C161C06900F08050009008BD00007A
:1005500000100240F0B40E4B1B680C46C3F302239C
:10056000C3F10705042D00D90425191D072901D25F
:10057000002300E0DB1E012606FA05F1491E21409A
:1005800099409E40761E16403143F0BC00F0ACBD51
:100590000CED00E0064900F0070208684FF6FF0383
:1005A000184040EA0220034A1043086070470000E8
:1005B0000CED00E00000FA052DE9F0470F460500BC
:1005C00061D0434E306800F00700B84209D230686D
:1005D00020F0070038433060306800F00700B84270
:1005E00051D128683B4C810712D5400703D560687C
:1005F00040F4E06060602878000703D5606840F44C
:10060000605060606068A96820F0F0000843606096
:100610002878C00728D06868012810D021680228EF
:1006200010D0890700292EDA616821F00301014307
:100630006160FFF739FF804641F288390DE021689B
:100640008903EFE78901EDE7FFF72EFFA0EB080133
:10065000494502D90320BDE8F0876068696800F069
:100660000C00B0EB810FEFD1306800F00700B8420A
:100670000BD9306820F0070038433060306800F054
:100680000700B84201D00120E5E72878400705D5EA
:100690006068E96820F4E06008436060287800073B
:1006A00006D56068296920F4605040EAC1006060A6
:1006B00000F018F86168084AC1F30311515CC840A2
:1006C0000649086006480068FFF70EFF0020C2E7F1
:1006D0000020024000100240BE1100080C00002063
:1006E000040000200E4A51680E4801F00C03042B50
:1006F00011D0082B0FD10C48C1F38343C903C05C50
:100700000AD55168084AC1F34041921E515C054A1E
:100710005043B0FBF1F07047044948437047000074
:100720000010024000127A00AE11000800093D00DE
:100730002DE9F84F040070D02078C04DC00749D093
:100740006868C0F38100012807D06868C0F38100A1
:10075000022809D16868C00306D52868800339D506
:1007600060680028E7D035E06068B0F5803F0BD0C6
:1007700010B1B0F5A02F11D0286820F48030286087
:10078000286820F4802002E0286840F48030286047
:10079000606890B1FFF788FE06460AE0286840F4DA
:1007A00080202860F0E700BFFFF77EFE801B6428F2
:1007B00073D828688003F7D50CE0FFF775FE06466E
:1007C00005E000BFFFF770FE801B6428F0D82868A2
:1007D0008003F7D420789A4E80074FF001094FF03C
:1007E000000839D5686810F00C0F07D06868C0F3AE
:1007F0008100022809D16868C00306D428688007F0
:1008000014D52069012808D110E02069B0B1C6F8DC
:100810000090FFF749FE074605E00AE1FFF744FEB6
:10082000C01B0228C4D828688007F7D528686169EA
:1008300020F0F80040EAC10028600DE0C6F8008012
:10084000FFF732FE074604E0FFF72EFEC01B02282A
:1008500023D828688007F7D4207800072CD579485A
:10086000A169D9B1C0F80090FFF71EFE074604E069
:10087000FFF71AFEC01B02280FD8686A8007F7D559
:1008800071484FF4FA510068B0FBF1F0009000BFDE
:100890000098411E0091FAD20EE080E0C0F800807E
:1008A000FFF702FE074604E0FFF7FEFDC01B02282B
:1008B00075D8686A8007F7D42078400760D5E86962
:1008C0000027C00008D4E86940F08050E861E8697A
:1008D000012700F0805000905C480168C90513D4DE
:1008E0000168834641F480710160FFF7DDFD8246B7
:1008F00006E000BFFFF7D8FDA0EB0A0064284ED841
:10090000DBF80000C005F5D5E06801280AD008B181
:10091000052813D0286A20F001002862286A20F0F8
:10092000040002E0286A40F001002862E06841F219
:10093000883B98B1FFF7B8FD82460BE0286A40F08B
:1009400004002862EEE700BFFFF7AEFDA0EB0A014E
:1009500059455AD8286A8007F6D50CE0FFF7A4FD60
:10096000824605E0FFF7A0FDA0EB0A0159454CD8EF
:10097000286A8007F6D41FB1E86920F08050E8614A
:10098000E06988B36968C1F38101022944D0022873
:10099000C6F8608004D0FFF787FD044638E034E0F5
:1009A000FFF782FD074604E0FFF77EFDC01B02282B
:1009B0002BD828688001F7D4206AB0F5803F05D194
:1009C0006868A16820F4003008436860D4E9080131
:1009D0000843696821F4741108436860C6F86090A0
:1009E000FFF762FD044606E025E000BFFFF75CFD6F
:1009F000001B022809D828688001F7D51BE000BF3A
:100A0000FFF752FD001B022802D90320BDE8F88F32
:100A100028688001F4D40EE00128F7D06868226AC3
:100A200000F48031914204D1616A00F47010884270
:100A300001D00120EAE70020E8E7000000100240B2
:100A400000004242800442420C000020007000403E
:100A500010B5401EB0F1807F01D3012010BD4FF0D2
:100A6000E02460610F21601700F03EFB0020A061D0
:100A700007202061002010BDFEE72DE9F047074662
:100A8000DDE9089A1D4690460E463B2000F05CF8D2
:100A900004463C2000F058F840EA042038803D200D
:100AA00000F052F804463E2000F04EF840EA0420E0
:100AB00030803F2000F048F80446402000F044F821
:100AC00040EA0420A8F80000432000F03DF8044666
:100AD000442000F039F840EA04202880452000F046
:100AE00033F80446462000F02FF840EA0420A9F825
:100AF0000000472000F028F80446482000F024F8C1
:100B000040EA0420AAF80000BDE8F087752000F054
:100B10001BB810B501216B2000F035F800216C20C6
:100B200000F031F80921192000F02DF806211A20D3
:100B300000F029F818211B2000F025F81821BDE845
:100B400010401C2000F01FB810B5044600F0BCF89F
:100B5000D02000F0A5F800F06FF8204600F0A0F8D3
:100B600000F06AF800F0B0F8D12000F099F800F039
:100B700063F800F070F80446012000F086F800F0F9
:100B8000B2F8204610BD70B50D46044600F09CF842
:100B9000D02000F085F800F04FF8204600F080F8F3
:100BA00000F04AF8284600F07BF800F045F8BDE870
:100BB000704000F098B8000030B585B000241448AB
:100BC0000094019402940394816941F020018161B1
:100BD000816901F020010491816941F0080181617E
:100BE00080690C4D00F0080004900022C0212846C6
:100BF000FFF755FCC02000901120CDE9010403202F
:100C0000039069462846FFF755FB05B030BD00004C
:100C100000100240000C0140FEE7000010B58021EA
:100C20000448FFF737FC04460A20FFF732FB204652
:100C300010BD0000000C014010B5012000F06EF85E
:100C4000012000F05DF8FFF7E9FF0446002000F006
:100C500057F8204610BD70B50025012000F05EF861
:100C600000248026012000F04BF8FFF7D7FF012871
:100C700002D126FA04F00543002000F041F8641C7C
:100C8000E4B2082CEED3284670BD10B500F046F84B
:100C9000012000F035F8BDE81040002000F030B829
:100CA00070B500240546802626FA04F0284000F09E
:100CB00035F8012000F024F8002000F021F8641C31
:100CC000E4B2082CF0D370BD10B5012000F026F876
:100CD000012000F015F8002000F020F8BDE81040D9
:100CE000002000F00DB810B5002000F017F801202A
:100CF00000F006F8BDE81040012000F00FB8000039
:100D000010B5024640210448FFF7C9FBBDE810407A
:100D10000A20FFF7BEBA0000000C014010B50246E1
:100D200080210448FFF7BBFBBDE810400A20FFF715
:100D3000B0BA0000000C0140FEE770B500240021AD
:100D4000204600F0D4F80025002000F087F96D1C43
:100D5000EDB2802DF8D3641CE4B2082CEFD370BD43
:100D600010B5064C012240212046FFF798FB204693
:100D70000122BDE810408021FFF791BB000C01402B
:100D80002DE9F0410024124E0746802525FA04F291
:100D90003A4080213046FFF782FB01224021304655
:100DA000FFF77DFB002240213046FFF778FB641CF3
:100DB000E4B2082CEAD3012240213046FFF76FFB52
:100DC0003046BDE8F04100224021FFF768BB00003B
:100DD000000C014010B50B4C012280212046FFF78A
:100DE0005EFB012240212046FFF759FB00228021B3
:100DF0002046FFF754FB20460022BDE8104040216A
:100E0000FFF74DBB000C014010B5094C00228021BA
:100E10002046FFF744FB012240212046FFF73FFB1D
:100E200020460122BDE810408021FFF738BB0000BA
:100E3000000C014010B500204FF47A720021491CCB
:100E40009142FCD3401C9042F8D3FFF789FFAE20BB
:100E500000F0F3F8D52000F0F0F8802000F0EDF875
:100E6000A82000F0EAF83F2000F0E7F8D32000F0D7
:100E7000E4F8002000F0E1F8402000F0DEF8A120C6
:100E800000F0DBF8C82000F0D8F8DA2000F0D5F840
:100E9000122000F0D2F8812000F0CFF8CF2000F02F
:100EA000CCF8D92000F0C9F8F12000F0C6F8DB201A
:100EB00000F0C3F8302000F0C0F8A42000F0BDF826
:100EC000A62000F0BAF88D2000F0B7F8142000F04A
:100ED000B4F8AF2000F0B1F8BDE81040FFF72DBF27
:100EE0000246012000E05043491EFCD2704710B575
:100EF0000C4640F0B00000F0A0F8102040EA1410BA
:100F000000F09BF804F00F00BDE8104000F095B829
:100F10002DE9F0410746CE004000083E801E1546F0
:100F20004FF0FF38F1B2C0B2FFF7E1FF11480024E3
:100F300000EB05152819A0F5805090F8000E00F080
:100F40008DF8641CE4B2082CF4D308EB4700F1B22E
:100F5000C0B2FFF7CCFF00242819A0F5805090F80C
:100F6000080E00F07BF8641CE4B2082CF4D3BDE852
:100F7000F0810000CE1100082DE9F0411D46174612
:100F80000E468046002415E0291B1020491EFFF75D
:100F9000A7FFB7FBF0F000F00F0206EB0400C1B2B0
:100FA0000A2A404601D2303200E03732FFF7B0FF64
:100FB000641CE4B2AC42E7D3BDE8F0812DE9F04710
:100FC0001E4614008846814604D42B22FFF7A0FF5A
:100FD000254603E02D22FFF79BFF654200240A27E8
:100FE00014E0311B0A20491EFFF77AFFB5FBF0F031
:100FF000B0FBF7F107FB110208EB0400401CC1B283
:1010000048463032FFF784FF641CE4B2B442E8D3B0
:10101000BDE8F0872DE9F04115460E46074600244D
:1010200006E03019C1B23846FFF772FF641CE4B223
:101030002A5D002AF5D1BDE8F08110B50446FFF71E
:10104000C9FE7820FFF79CFE0020FFF799FE20469E
:10105000FFF796FEBDE81040FFF7D6BE10B5044678
:10106000FFF7B8FE7820FFF78BFE4020FFF788FEE1
:101070002046FFF785FEBDE81040FFF7C5BE70476C
:101080007047FFF717BA30B58FB028216846FFF7D1
:101090009BF814210AA8FFF797F801210804CDE96D
:1010A00000100024029402250491CDE907504FF46A
:1010B000E01009906846FFF73BFB08B172B6FEE707
:1010C0000F20CDE90A054FF48060CDE90C400221E4
:1010D0000AA80E94FFF770FA002801D072B6FEE756
:1010E0000FB030BD7047FEE70907090E002804DB8A
:1010F00000F1E02080F80014704700F00F0000F1CC
:10110000E02080F8141D704788B0FFF7DBF9FFF787
:10111000BAFFFFF751FDFFF78DFEFFF7FAFCFFF76F
:101120000CFE012120A20846FFF774FFFFF7EEFC3A
:101130000246022304210120FFF71EFF03AD02AC8B
:1011400007AB06AA05A904A8CDE90045FFF795FC61
:101150000523BDF9102001210220FFF72FFF0523F1
:10116000BDF9142001210320FFF728FF0523BDF955
:10117000182001210420FFF721FF0523BDF91C20C1
:1011800008210220FFF71AFF0523BDF908200821D6
:101190000320FFF713FF0523BDF90C2008210420CD
:1011A000FFF70CFFCCE7000049443A0001020203BC
:1011B0000405060708090A0B0C0D0E0F101000009D
:1011C00000000000000001020304060708090000F7
:1011D000000000000000000000000000000000000F
:1011E00000F8000000000000003330000000001094
:1011F0000C06100C0600000000000000000040C0BB
:101200007840C0784000043F04043F0404000070AC
:1012100088FC08300000001820FF211E0000F008A4
:10122000F000E018000000211C031E211E0000F049
:101230000888700000001E21232419272110101691
:101240000E00000000000000000000000000000090
:1012500000E018040200000000071820400000020F
:101260000418E00000000040201807000000404083
:1012700080F0804040000202010F010202000000E5
:1012800000F0000000000101011F01010100000049
:1012900000000000000080B07000000000000000AE
:1012A0000000000000000001010101010101000037
:1012B00000000000000000303000000000000000CE
:1012C000000080601804006018060100000000E0C3
:1012D00010080810E000000F102020100F00001070
:1012E00010F8000000000020203F202000000070C7
:1012F00008080888700000302824222130000030BF
:101300000888884830000018202020110E000000B6
:10131000C02010F8000000070424243F240000F837
:101320000888880808000019212020110E0000E01C
:10133000108888180000000F112020110E000038BE
:101340000808C83808000000003F000000000070D6
:10135000880808887000001C222121221C0000E05F
:1013600010080810E0000000312222110F000000D8
:1013700000C0C0000000000000303000000000008D
:1013800000800000000000008060000000000000FD
:101390008040201008000001020408102000404096
:1013A00040404040400004040404040404000008D9
:1013B000102040800000002010080402010000708E
:1013C00048080808F0000000003036010000C03076
:1013D000C828E810E0000718272423140B00000099
:1013E000C038E0000000203C23020227382008F823
:1013F000888888700000203F202020110E00C03017
:10140000080808083800071820202010080008F8ED
:1014100008080810E000203F202020100F0008F8E6
:101420008888E8081000203F20202320180008F8B2
:101430008888E8081000203F200003000000C0302A
:1014400008080838000007182020221E020008F8AB
:1014500008000008F808203F210101213F20000872
:1014600008F8080800000020203F202000000000AD
:101470000808F8080800C08080807F00000008F895
:1014800088C028180800203F20012638200008F8CE
:10149000080000000000203F20202020300008F835
:1014A000F800F8F80800203F003F003F200008F84F
:1014B00030C00008F808203F200007183F00E01067
:1014C00008080810E0000F10202020100F0008F876
:1014D00008080808F000203F210101010000E01089
:1014E00008080810E0000F18242438504F0008F8AE
:1014F000888888887000203F2000030C302000700E
:101500008808080838000038202121221C0018080B
:1015100008F8080818000000203F2000000008F824
:1015200008000008F808001F202020201F0008786D
:10153000880000C83808000007380E010000F808CD
:1015400000F80008F800033C0700073C03000818F7
:1015500068808068180820302C03032C302008385D
:10156000C800C83808000000203F20000000100814
:101570000808C8380800203826212020180000005C
:1015800000FE020202000000007F40404000000C0C
:1015900030C000000000000000010638C00000025A
:1015A0000202FE000000004040407F0000000000FA
:1015B000040202020400000000000000000000001D
:1015C0000000000000008080808080808080000219
:1015D0000204000000000000000000000000000005
:1015E0008080808000000019242222223F2008F8F9
:1015F000008080000000003F112020110E0000003C
:10160000008080800000000E1120202011000000CA
:1016100000808088F800000E112020103F2000007C
:10162000808080800000001F222222221300008080
:1016300080F0888888180020203F202000000000CB
:10164000808080808000006B94949493600008F800
:10165000008080800000203F210000203F2000808B
:101660009898000000000020203F2020000000008B
:1016700000809898000000C08080807F000008F8FB
:10168000000080808000203F24022D3020000008D0
:1016900008F8000000000020203F2020000080808B
:1016A000808080808000203F20003F20003F80809D
:1016B000008080800000203F210000203F200000AB
:1016C000808080800000001F202020201F0080805C
:1016D00000808000000080FFA12020110E0000008B
:1016E000008080808000000E112020A0FF8080807C
:1016F00080008080800020203F2120000100000029
:1017000080808080800000332424242419000080FD
:1017100080E0808000000000001F2020000080800A
:10172000000000808000001F202020103F208080CB
:1017300080000080808000010E300806010080805B
:101740000080008080800F300C030C300F00008080
:101750008000808080000020312E0E3120008080AB
:1017600080000080808080818E70180601000080DB
:101770008080808080000021302C222130000000F9
:101780000000807C020200000000003F404000009A
:101790000000FF00000000000000FF000000000249
:1017A000027C800000000040403F00000000000676
:1017B000010102020404000000000000000000001B
:1017C000E0170008000000201000000028010008B9
:1017D000F017000810000020600600004401000817
:1017E0000100000010000000000000000024F400D0
:04000005080000ED02
:00000001FF
