:020000040800F2
:10000000C806002089010008B7230008BD130008B6
:10001000B52300088F0200087727000800000000C1
:100020000000000000000000000000001127000890
:1000300091020008000000000F27000813270008A5
:10004000A3010008A3010008A3010008A301000800
:10005000A3010008A3010008A3010008A3010008F0
:10006000A3010008A3010008A3010008A3010008E0
:10007000A3010008A3010008A3010008A3010008D0
:10008000A3010008A3010008A3010008A3010008C0
:10009000A3010008A3010008A3010008A3010008B0
:1000A000A3010008A3010008A3010008A3010008A0
:1000B000A3010008A3010008A3010008CD13000854
:1000C000C1130008A3010008A3010008A301000850
:1000D000A3010008A3010008A3010008A301000870
:1000E000A3010008A3010008A301000800F002F822
:1000F00000F03AF80AA090E8000C82448344AAF188
:100100000107DA4501D100F02FF8AFF2090EBAE885
:100110000F0013F0010F18BFFB1A43F0010318473B
:100120003C2D00005C2D0000103A24BF78C878C137
:10013000FAD8520724BF30C830C144BF04680C60ED
:10014000704700000023002400250026103A28BF35
:1001500078C1FBD8520728BF30C148BF0B60704739
:100160001FB51FBD10B510BD00F058F81146FFF7C0
:10017000F7FF02F011FB00F076F803B4FFF7F2FF8F
:1001800003BC00F07DF8000009488047094800479B
:10019000FEE7FEE7FEE7FEE7FEE7FEE7FEE7FEE737
:1001A000FEE7FEE704480549054A064B7047000094
:1001B00075270008ED000008C8000020C8060020D0
:1001C000C8020020C80200204FF0000200B513460C
:1001D00094469646203922BFA0E80C50A0E80C5067
:1001E000B1F12001BFF4F7AF090728BFA0E80C5018
:1001F00048BF0CC05DF804EB890028BF40F8042B11
:1002000008BF704748BF20F8022B11F0804F18BF7D
:1002100000F8012B7047704770477047754600F033
:100220002BF8AE4605006946534620F00700854688
:1002300018B020B5FFF7B6FFBDE820404FF000062C
:100240004FF000074FF000084FF0000B21F00701BE
:10025000AC46ACE8C009ACE8C009ACE8C009ACE801
:10026000C0098D46704710B50446AFF300802046A4
:10027000BDE81040FFF781BF0048704768000020CC
:1002800001491820ABBEFEE7260002007047FEE7DA
:10029000704772B6FEE7000010B590F821100024F8
:1002A000022903D00421816301243DE001680A682A
:1002B00022F00E020A6001680A6822F001020A6058
:1002C0001A4A0168914201D1012121E0174A1432F2
:1002D000914201D110211BE0144A2832914201D1F0
:1002E000891515E0114A3C32914201D189140FE081
:1002F0000E4A5032914202D14FF4803108E00B4A4D
:100300006432914202D14FF4801101E04FF08071CC
:10031000064A083A5160012180F82110002180F836
:100320002010416B01B18847204610BD08000240F3
:1003300090F82100704700002DE9F84FDFF8B891E0
:100340000024A9F1040B23460F2709F1040AABF19D
:10035000040EC9E00125A5402A40AA427DD1674E7E
:10036000D1F804C0ACEB0608B44532D014DCBCF1C3
:10037000030F3AD009DCBCF1000F2AD0BCF1010F09
:100380001CD0BCF1020F31D11DE0BCF1110F17D010
:10039000BCF1120F2AD119E0B8F5881F19D006DC7C
:1003A000B8F5803F15D0B8F5801F1FD111E0B8F522
:1003B000001F0ED0B8F5041F18D10AE0CB6815E075
:1003C000CB681B1D12E0CB6808330FE0CB680C3301
:1003D0000CE08B682BB1012B4FF0080303D0456173
:1003E00004E0042302E0056100E00023FF2A01D8B5
:1003F000064601E000F104064FEA840501D9A5F1A3
:100400002005D6F8008007FA05FC28EA0C0803FA54
:1004100005F548EA0508C6F800804D68ED0062D58C
:10042000374DAE6946F00106AE61AD6924F00306B2
:1004300005F001050095334D06EB050CDCF808507E
:10044000A607360F07FA06F825EA0805DFF8B88090
:10045000404503D14FF0000817E044E0DFF8AC80DE
:10046000404502D14FF001080FE0DFF8A48040457D
:1004700002D14FF0020808E0DFF89880404502D131
:100480004FF0030801E04FF0040808FA06F848EAC4
:100490000508CCF808804D68D9F80060ED024D469B
:1004A00001D5164300E096432E604D68DAF80060EF
:1004B000AD02554601D5164300E096432E604D68C7
:1004C000DBF80060AD035D4601D5164300E09643BE
:1004D0002E604D68DEF80060ED03754601D51643C9
:1004E00000E096432E60641C0D682A46E5407FF4C8
:1004F00031AFBDE8F88F0000080401400000111082
:10050000001002400000014000080140000C0140C2
:1005100000100140001401400AB101617047090454
:10052000FBE70000014880687047000000000020E1
:10053000704770472DE9F041016804464A694E68EA
:1005400090F83E000025D743FA050BD4F243D205BC
:1005500008D46FF4807201254A6121680A6842F468
:1005600000420A60B90508D4F143C90505D42268E0
:100570006FF4007145F002055161790525D4F1430E
:10058000C90522D4638D94F83D10226B202808D130
:100590003BB9212910D029290ED0282901D1212A9F
:1005A0000AD022686FF48061516145F0040510287B
:1005B00006D0402804D008E0204601F0E7FB04E024
:1005C0002068016841F400710160380508D4F043E7
:1005D000C00505D421686FF4006045F00805486146
:1005E000002D07D0206C284320642046BDE8F04150
:1005F00000F058BFBDE8F0812DE9F0470268002106
:100600005368C66A90F83E4090F83D50102C12D0C6
:10061000402C10D0046C002C7DD05469E443A60714
:100620007AD4DE43B60577D4036C03B19169BDE893
:10063000F04701F087BB976951694FF42A0CC94311
:100640005FEAC1784FF02A4904D066452AD04E456A
:1006500028D010E0DE43B6050DD4C16A614501D152
:10066000012103E0C16A494501D10821C162BDE809
:10067000F04701F04FBA0E0716D4DE43B60513D487
:10068000416CC9B21161416B09B1896A29B9816BA9
:10069000002907D0896A002904D00068416841F424
:1006A00000614160BDE8F0878E0706D4DE43B605E1
:1006B00003D4BDE8F04701F081B9FE4352687607E4
:1006C0004FEA02521DD4002AECDB0A0608D4DA43B2
:1006D000520505D4490705D5BDE8F04701F012B928
:1006E0004907DFD4D9438905DCD4212D05D0402C1E
:1006F000D8D1BDE8F04701F053BABDE8F04701F0AA
:10070000BFB8002ACEDB4A060BD4DA43520508D420
:10071000490708D501E00DE00EE0BDE8F04700F024
:10072000EDBF4907BED4D9438905BBD4BDE8F04726
:1007300000F07BBF916970E7E10606D4D9438905D3
:1007400003D4BDE8F04701F069BB2821212D27D053
:10075000292D25D0650655D4DD436D0552D4640797
:1007600052D590F83D30448D002C9BD01269446ADC
:100770002270426A521C4262428D521E4285428D54
:10078000002A8FD12A2B8DD10268536823F480630D
:1007900053602222026380F83D1000F00DFB81E7D8
:1007A000250623D4DD436D0520D4640720D590F8B9
:1007B0003D30448D002CF2D0446A24781461426AA2
:1007C000521C4262428D521E4285428D002AE6D161
:1007D000292BE4D10268536823F4806353602122FB
:1007E000026380F83D1000F0E8FA5BE76107D6D4B9
:1007F000D9438905D3D4418D0029D0D0416A0978E5
:1008000011610AE06107CAD4D9438905C7D4418D73
:100810000029C4D01169426A1170416A491C4162C1
:10082000418D491E41853DE77047000070B50400C9
:1008300025D094F83D00002520B984F83C5020468E
:1008400000F07CFA242084F83D002068016821F043
:10085000010101602068016841F4004101602068E5
:10086000016821F40041016000F0CEFB4D4A61684F
:10087000914201D84C4900E04C49884201D2012004
:1008800070BD4B492368B0FBF1F15E6826F03F066E
:100890000E435E606368934206D94FF496735943E2
:1008A0004FF47A73B1FBF3F12368491C1E6A26F0FA
:1008B0003F06314319626168914210D84900401ED9
:1008C000B0FBF1F2521CC2F30B02042A01D2042045
:1008D00022E0B0FBF1F0401CC0F30B001CE0A2686A
:1008E000F2B301EBC10303EB0116431EB3FBF6F3B6
:1008F0005B1C43F480431B0549D092B301EBC1025A
:1009000002EB0111401EB0FBF1F0401CC0F30B00E4
:1009100040F4804040F400402168CA694CF6FF73FF
:100920009A431043C861D4E9071001432068026864
:1009300022F0C00211430160D4E9030101432068A1
:10094000826848F2FF339A4311438160D4E905017C
:1009500008432168CA6822F0FF021043C86001E022
:100960000EE016E02068016841F001010160256495
:10097000202084F83D00256384F83E50002070BD9F
:1009800001EB4106431EB3FBF6F35B1CB3E701200A
:10099000C2E701EB4101401EB0FBF1F0401CC0F387
:1009A0000B00B7E7A086010080841E0000093D000F
:1009B00040420F0070477047704700002DE9F84F24
:1009C0001F4690468A460446DDF82890FFF7AAFDA8
:1009D000054694F83D0020287FD119230122404983
:1009E0002046009501F0F4FA002876D194F83C00F6
:1009F000012872D0012084F83C0020680168C907F2
:100A000003D1016841F0010101602068016821F40F
:100A100000610160212084F83D00102084F83E0030
:100A200000262664C4F824806785608D20852D48C3
:100A3000E0622B464A465146204600F0D3FE90B96C
:100A4000206841698069009036E02A464946204680
:100A500001F09CFB50B1206C042804D1206801688F
:100A600041F4007101600120BDE8F88F606A2168DF
:100A700000780861606A401C6062618D491E618572
:100A8000218D491E89B2218522685369DB435B07AA
:100A90000BD451B100781061606A401C6062608DB7
:100AA000401E6085208D401E20852A4649462046EE
:100AB00001F062FA0028CED1208D0028C5D154F86B
:100AC0003D0B016841F400710160202004F81E090B
:100AD000E67766770020C7E7FFE70220C4E700005B
:100AE000020010000000FFFF704770472DE9FF4F24
:100AF00083B00025DDE910799A4693460446DDF877
:100B000048800095FFF70EFD064694F83D0020282A
:100B10007CD11923012285492046009601F058FA1C
:100B20000028F5D194F83C0001286FD0012084F80A
:100B30003C0020680168C90703D1016841F0010148
:100B400001602068016821F400610160222084F8BE
:100B50003D00402084F83E0025646762A4F82A9096
:100B6000608D20857248E062CDE9008653465A4682
:100B70002046049901F068F800287DD1208DDFF827
:100B8000B491202768B1012814D002282068016898
:100B90001ED041F480610160206841698069009045
:100BA000B6E02068416981690091016841F40071F3
:100BB0000160ADE02068016821F48061016072B6D7
:100BC0002068416981690091016841F400710AE07F
:100BD00041F40061016072B6206841698169009149
:100BE000016821F48061016062B691E0032868D851
:100BF00001280CD0022843464FF000024946204607
:100C000000960FD001F0E4F9B0BB10E08BE0324663
:100C10004146204601F082FA70BB20680069616A93
:100C200008706CE001F0D4F930BB72B634E0206893
:100C3000016821F48061016072B620680069616A10
:100C40000870606A401C6062208D401E2085608DA7
:100C5000401E6085384846F2A8110068B0FBF1F0EC
:100C6000C0EBC00000EB80000090401E009008D058
:100C700020684069C04300E029E040070CD5009897
:100C8000F3E744F8305F6773A573206940F02000F4
:100C9000206162B625731AE02068016841F4007192
:100CA000016020680069616A0870606A401C6062C7
:100CB000218D491E2185618D491E618562B621689D
:100CC0001BE032464146204601F028FA18B10120C7
:100CD00007B0BDE8F08F20680069616A0870606A3B
:100CE000401C6062218D491E2185618D491E6185F0
:100CF00021684A69D24352070AD409690170606ABF
:100D0000401C6062208D401E2085608D401E6085E5
:100D1000208D00287FF46AAF84F83D7084F83E503F
:100D200084F83C50D4E70220D2E700000200100013
:100D30000000FFFF040001000C00002010B586B089
:100D400000210091019102910391006817498842A6
:100D50002AD1174CA06940F00800A061A06969463B
:100D600000F008000490C0200090122001900320A1
:100D700003901048FFF7E0FAE06940F40010E061EA
:100D8000E069002200F40010049011461F2000F0DA
:100D900073F81F2000F062F800221146202000F0B6
:100DA0006BF8202000F05AF806B010BD0054004047
:100DB00000100240000C01407047704702488168F3
:100DC000027811448160704700000020074810B588
:100DD000016841F010010160032000F06DF80F2060
:100DE00000F006F800F024F8002010BD00200240BA
:100DF00070B50D4D04464FF47A712878B1FBF0F0D0
:100E00000A490968B1FBF0F000F0C4FA48B9102CA7
:100E100007D200222146501E00F02EF800206C6000
:100E200070BD012070BD0000000000200C000020FB
:100E3000094808B5816941F001018161816901F0CA
:100E400001010091C16941F08051C161C06900F0A8
:100E50008050009008BD000000100240002809DB0F
:100E600000F01F02012191404009800000F1E020C4
:100E7000C0F8001170470000F0B40E4B1B680C4620
:100E8000C3F30223C3F10705042D00D90425191D5E
:100E9000072901D2002300E0DB1E012606FA05F136
:100EA000491E214099409E40761E16403143F0BCB9
:100EB00001F062BC0CED00E0064900F00702086892
:100EC0004FF6FF03184040EA0220034A104308602F
:100ED000704700000CED00E00000FA052DE9F04736
:100EE0000F46050061D0434E306800F00700B8425D
:100EF00009D2306820F0070038433060306800F0D5
:100F00000700B84251D128683B4C810712D54007F1
:100F100003D5606840F4E06060602878000703D57E
:100F2000606840F4605060606068A96820F0F0007C
:100F3000084360602878C00728D06868012810D06E
:100F40002168022810D0890700292EDA616821F073
:100F5000030101436160FFF7E5FA804641F28839F9
:100F60000DE021688903EFE78901EDE7FFF7DAFA81
:100F7000A0EB0801494502D90320BDE8F08760686D
:100F8000696800F00C00B0EB810FEFD1306800F021
:100F90000700B8420BD9306820F0070038433060B2
:100FA000306800F00700B84201D00120E5E728785A
:100FB000400705D56068E96820F4E0600843606098
:100FC0002878000706D56068296920F4605040EA57
:100FD000C100606000F028F86168084AC1F303119D
:100FE000515CC8400649086006480068FFF700FFEA
:100FF0000020C2E7002002400010024052280008F2
:101000000C000020040000200448054900684968DD
:10101000044AC1F30221515CC84070470C00002013
:1010200000100240622800080E4A51680E4801F084
:101030000C03042B11D0082B0FD10C48C1F38343B0
:10104000C903C05C0AD55168084AC1F34041921EE9
:10105000515C054A5043B0FBF1F0704704494843E6
:10106000704700000010024000127A004228000879
:1010700000093D002DE9F84F040070D02078C04DE4
:10108000C00749D06868C0F38100012807D06868AC
:10109000C0F38100022809D16868C00306D528681A
:1010A000800339D560680028E7D035E06068B0F586
:1010B000803F0BD010B1B0F5A02F11D0286820F4DC
:1010C00080302860286820F4802002E0286840F4FE
:1010D00080302860606890B1FFF724FA06460AE085
:1010E000286840F480202860F0E700BFFFF71AFA74
:1010F000801B642873D828688003F7D50CE0FFF7BD
:1011000011FA064605E000BFFFF70CFA801B6428C1
:10111000F0D828688003F7D420789A4E80074FF0E3
:1011200001094FF0000839D5686810F00C0F07D09E
:101130006868C0F38100022809D16868C00306D43A
:101140002868800714D52069012808D110E020699B
:10115000B0B1C6F80090FFF7E5F9074605E00AE1EF
:10116000FFF7E0F9C01B0228C4D828688007F7D52C
:101170002868616920F0F80040EAC10028600DE0AD
:10118000C6F80080FFF7CEF9074604E0FFF7CAF97A
:10119000C01B022823D828688007F7D420780007CE
:1011A0002CD57948A169D9B1C0F80090FFF7BAF9F8
:1011B000074604E0FFF7B6F9C01B02280FD8686A9B
:1011C0008007F7D571484FF4FA510068B0FBF1F091
:1011D000009000BF0098411E0091FAD20EE080E01E
:1011E000C0F80080FFF79EF9074604E0FFF79AF980
:1011F000C01B022875D8686A8007F7D4207840079A
:1012000060D5E8690027C00008D4E86940F0805044
:10121000E861E869012700F0805000905C480168AF
:10122000C90513D40168834641F480710160FFF75A
:1012300079F9824606E000BFFFF774F9A0EB0A00D7
:1012400064284ED8DBF80000C005F5D5E068012819
:101250000AD008B1052813D0286A20F001002862BE
:10126000286A20F0040002E0286A40F001002862A9
:10127000E06841F2883B98B1FFF754F982460BE0F1
:10128000286A40F004002862EEE700BFFFF74AF941
:10129000A0EB0A0159455AD8286A8007F6D50CE018
:1012A000FFF740F9824605E0FFF73CF9A0EB0A01A1
:1012B00059454CD8286A8007F6D41FB1E86920F058
:1012C0008050E861E06988B36968C1F3810102294F
:1012D00044D00228C6F8608004D0FFF723F9044602
:1012E00038E034E0FFF71EF9074604E0FFF71AF98B
:1012F000C01B02282BD828688001F7D4206AB0F5DB
:10130000803F05D16868A16820F400300843686018
:10131000D4E908010843696821F47411084368603E
:10132000C6F86090FFF7FEF8044606E025E000BF2F
:10133000FFF7F8F8001B022809D828688001F7D5C4
:101340001BE000BFFFF7EEF8001B022802D90320C4
:10135000BDE8F88F28688001F4D40EE00128F7D0AA
:101360006868226A00F48031914204D1616A00F415
:101370007010884201D00120EAE70020E8E7000071
:101380000010024000004242800442420C00002053
:101390000070004010B5401EB0F1807F01D30120E5
:1013A00010BD4FF0E02460610F21601701F0E4F9F7
:1013B0000020A06107202061002010BDFEE7000092
:1013C0000148FFF7B7B80000140000200148FFF7FC
:1013D00013B900001400002038B5406A002190F8CD
:1013E0003D202B4B46F2A8141B68B3FBF4F3C3EB70
:1013F000C30303EB830300933BB15B1E00930368BD
:101400001B689B0505D5009BF6E7036C43F02003A2
:101410000364436B03B19962836B03B19962036800
:101420001C6824F480641C604185436B03B15963DC
:10143000836B03B1596303681C6824F001041C60CA
:1014400090F83D402023602C0BD0282434EA02027F
:101450000FD080F83D3080F83E1000BFFFF7E4F970
:1014600038BD80F83D3080F83E100164FFF760F829
:1014700038BD0268136843F0010313600268136803
:1014800043F480631360016380F83D40E6E70000A9
:101490000C00002000684169C943090601D40021FD
:1014A0000161704770B5044690F83D0094F83E1015
:1014B000102901D0402906D1222804D121680A68C8
:1014C00022F400620A60282131EA00024FF0000590
:1014D0004FF0200626D021684968090505D4602808
:1014E00003D084F83D6084F83E502563206841684D
:1014F000090537D5416821F400614160606B90F8BF
:1015000021203C49012A11D04163606BFEF7C4FEE3
:1015100038B32068016821F00101016084F83D6062
:10152000606B1CE0256384F83D10DFE7A06B41632E
:10153000A06BFEF7B1FEA0B120684169C94349061E
:1015400005D40069616A0870606A401C60622068A6
:10155000016821F00101016084F83D60A06B416BDE
:10156000884710E094F83D10602910D04169C943C4
:10157000490605D40069616A0870606A401C6062AF
:101580002046FFF751F9206CC1071CD115E084F803
:101590003D6025644169C943490605D40069616A13
:1015A0000870606A401C60622068016821F00101D7
:1015B00001602046FEF7BCFFE5E7810703D4410741
:1015C00001D4000704D52068416821F4E06141603E
:1015D00094F83D00216C49070BD5282809D106480D
:1015E000E062256384F83D6084F83E502046FFF7B2
:1015F000E1F970BDD91300080000FFFF01684A69D6
:10160000D24352050FD46FF480624A61002140F842
:10161000301F202242738173026942F0040202618A
:101620000173012070470020704710B5C26A438DD6
:101630000168042B06D0438D032B08D0438D022B69
:101640001DD012E04A6822F480624A600CE04B68C8
:1016500023F480634B60042A06D0022A04D0016878
:101660000A6822F480620A6001680969426A11709E
:10167000416A491C4162418D491E418510BD012AC4
:1016800030D0102A2ED0042A30D0022A2ED00A6858
:1016900042F400720A6001680969426A1170416A85
:1016A000491C4162428D521E4285026812690A70CD
:1016B000416A491C4162418D491E418501684A6861
:1016C00022F440724A60202180F83D1090F83E20BC
:1016D0000021402A80F83E100CD012210163FFF750
:1016E0006AF910BD0A6822F48062D3E70A6842F4FE
:1016F0008062CFE70163FFF7F7F910BD38B590F8C6
:101700003D1022290FD1418D03290DD901680969A6
:10171000426A1170416A491C4162418D491E4185EE
:10172000418D032906D038BDC26A022A02D00129A0
:1017300006D029B10068416821F48061416038BD5C
:10174000274946F2A81300220968B1FBF3F101EB27
:101750008101009101682023009C641E009422D026
:101760000C68A405F8D40C6824F480640C6001684B
:101770004C6824F4E0644C6001680969446A217093
:10178000416A491C4162418D491E418580F83D30C6
:1017900090F83E1080F83E2040291DD012210163B0
:1017A000FFF709F938BD046C44F0200404644C6868
:1017B00024F4E0644C6001680969446A2170416A5C
:1017C000491C4162418D491E418580F83D3080F8B9
:1017D0003E20FFF729F838BD0263FFF785F938BDD1
:1017E0000C000020F8B50446C06A1E460D46174698
:1017F000082807D0012805D010F5803F02D0206BC3
:10180000122804D12068016841F4807101601346F8
:1018100000224FF001112046009600F0D9FB40B1A4
:1018200020680068C00502D54FF4007020640320D2
:10183000F8BD2069B0F5804F0ED00620216800EA7F
:10184000D51040F0F000086133463A460B49204677
:1018500000F006FC78B902E005F0FE0000E0E8B216
:1018600021680861054933463A46891F204600F041
:10187000F7FB0028DCD00120F8BD000008000100C3
:1018800010B5C26A90F83D1021290BD1418D51B19C
:10189000416A026809781161416A491C4162418DBF
:1018A000491E418510BD20230021082A13D0202A7B
:1018B00011D012F5803F0ED00268546824F4E06421
:1018C00054601122026380F83E1080F83D3000BF62
:1018D000FFF772F810BD0268546824F4E0645460A5
:1018E0000268146844F400741460016380F83D30A9
:1018F00090F83E2080F83E10402AE9D1FFF7F5F835
:1019000010BD000010B590F83D1090F83E30C26A4E
:10191000048DB4B1212903D0402B11D122290FD13C
:10192000418DE1B390F83E10402942D0416A0268EF
:1019300009781161416A491C4162418D491E418506
:1019400010BD2129E8D120230021082A13D0202A04
:1019500011D012F5803F0ED00268546824F4E06480
:1019600054601122026380F83E1080F83D3000BFC1
:10197000FFF722F810BD0268546824F4E064546054
:101980000268146844F400741460016380F83D3008
:1019900090F83E2080F83E10402AE9D100E002E0B5
:1019A000FFF7A3F810BD0068416821F48061416031
:1019B00010BDBDE8104000F0F3B8000078B590F815
:1019C0003E50C26A046B90F83D6000230168222EED
:1019D00073D1066D0EB9402D6FD0056D1DB9056927
:1019E000B5F5404F1BD0458D95B3468D484D012E22
:1019F00020D0448D022C4DD00C6844F480640C60DF
:101A000001684C68240579D5AA4273D0012A71D0A7
:101A1000082A6FD0102A6DD0202A6BD06EE04A6958
:101A20008A6900920A6842F480720A60016D491C5A
:101A3000016578BDAA4214D10A6822F480620A6066
:101A400001684A68120504D50A6822F4806217E02A
:101A5000FFE74A698A6900920A6842F400720A60E4
:101A600050E0082A10D0202A0ED0122C0AD0042AC6
:101A700003D0022A01D0102AE6D10A6842F480621B
:101A80000A603BE0012ADFD00A6822F480620A6023
:101A90000168DEE7042A11D0022A0FD0102A0DD0E7
:101AA0000C6844F400640C6001684C698C69009413
:101AB0000C6824F480640C6008E025E00C6844F4B1
:101AC00080640C6001684C698969009101684C6808
:101AD000240517D5AA4207D0012A05D0082A03D029
:101AE000102A01D0202A0DD14A6842F480524A605F
:101AF00008E0FFE74A6842F480524A6001684A6998
:101B000089690091036578BD48698869009078BD4E
:101B10000000FFFF90F83E10402910D00169B1F598
:101B2000804F19D0016DA9B3016D012910D1416C0D
:101B30005FF0F10201F4407142EAD11106E0016D5B
:101B40000029416C05D0C9B241F001010068016172
:101B5000704701F0FE01F9E790F83D102129416C32
:101B600009D0C9B241F0010102681161416B29B18C
:101B7000896A49B902E001F0FE01F5E7816B0029AD
:101B8000E6D0896A0029E3D00068416841F4006129
:101B900041607047FFE7416CF02201F44071CBE7F0
:101BA00010B590F83D10026D4AB1026D012A14D0B3
:101BB000026D022A16D0BDE81040FFF76BBCC16C65
:101BC0000129816C02D0C1F3072108E00268C9B283
:101BD0001161016D891C016510BD816CC9B202687B
:101BE000116123E022291CD0428D0AB1212920D085
:101BF000428D002AF0D12129EED101684A6822F4F1
:101C0000E0624A6001680A6842F400720A600021DA
:101C10000163202280F83D2080F83E10FEF765FF2A
:101C200010BD01680A6842F480720A60016D491CA7
:101C3000D1E7416A026809781161416A491C416231
:101C4000418D491E418510BD2DE9F84F04460068BD
:101C500089460B9D01689846174641F480610160F2
:101C60002068016841F48071016000954FF0011B0C
:101C70000022594620460A9B00F0AAF94FF4007A48
:101C800040B120680068C00501D5C4F840A0032019
:101C9000BDE8F88F216809F0FE0008612B4628494D
:101CA00020460A9A00F0DCF9F0BB2068416980699F
:101CB00000902A4620460A9900F068FA40B1206C4C
:101CC00004283AD12068016841F40071016034E0D1
:101CD000FEB2B8F1010F09D02168380A08612A461E
:101CE00020460A9900F052FA0028E8D120680661DF
:101CF0002A4620460A9900F049FA0028DFD12068D8
:101D0000016841F480710160009500225946204627
:101D10000A9B00F05DF90028B3D1216809F0FF00AB
:101D200040F00100086100E007E02B46044920462E
:101D30000A9A00F095F90028AAD00120A8E700002F
:101D40000200010038B50C4690F83D2000212825FE
:101D5000954302680B4605D051699169009180F85E
:101D60003C3038BD556825F480655560E243540722
:101D700000D50121120601D5828900E0028B80F88E
:101D80003C3092B2FEF7D5FB38BD00002DE9F041A2
:101D900090F83D300446C26A002120261E4F00689C
:101DA0006FF48065082A01D0202A01D1282B04D0A5
:101DB000212B17D04561BDE8F081E762426822F42B
:101DC000E0624260206845612068026822F4806217
:101DD0000260216384F83D6084F83E102046FEF7DF
:101DE000E9FDE8E7E7622122226384F83D6084F898
:101DF0003E10416821F4E06141602068456120683F
:101E0000016821F4806101602046FFF743FB204612
:101E1000FEF7D3FFCFE700000000FFFFF8B590F812
:101E20003D6004460068416821F4E061416020683B
:101E3000002541690091016841F0010101602068BD
:101E4000016821F48061016020684168090520D59E
:101E5000474F222E48D02A2E46D0616B0968496828
:101E60006185618D19B1216C41F0040121644168E3
:101E700021F400614160606BFEF75AFA012808D036
:101E8000606B4763606BFEF707FA10B1606B416BE4
:101E90008847608D08B320684169C943490708D461
:101EA0000069616A0870606A401C6062608D401E53
:101EB000608520684169C943490608D40069616AA0
:101EC0000870606A401C6062608D401E6085608D95
:101ED00018B1206C40F004002064206C00B3204650
:101EE000BDE8F840FFF7DEBAA16B09684968618573
:101EF000618D19B1216C41F004012164416821F424
:101F000000614160A06BFEF713FA0128C1D0A06BFD
:101F10004763A06BFEF7C0F90028BAD0A06BB6E704
:101F20002A2E06D12563282084F83D002046FEF79E
:101F300043FF94F83D10202028290DD0216B222941
:101F400001D0222E07D1256384F83D0084F83E504D
:101F50002046FEF731FFF8BD0649E162256384F8AB
:101F60003D0084F83E502046FEF724FDF8BD0000F9
:101F7000D91300080000FFFF70B516460D46044651
:101F80001EE02046FFF73AFB08B1012070BD681C37
:101F900016D0FEF7C7FA801BA84200D885B9206882
:101FA0004069C04340070BD5002044F8300F202182
:101FB0006173A073216941F0200121612073E4E77E
:101FC00020684069C0434007DBD4002070BD00009A
:101FD0002DE9F047984617460D460446C1F30746DB
:101FE000DDF820902AE000BFB8F1FF3F26D0FEF7D1
:101FF00099FAA0EB0901414502D8B8F1000F1DD1B3
:102000002068012E16D0806925EA00000004000C2B
:1020100012D00020B84211D1002044F8300F202106
:102020006173A073216941F02001216120730120B7
:10203000BDE8F0874069E7E70120EBE72068012E63
:102040000AD0806925EA00000004000C06D00020B8
:10205000B842C9D00020EBE74069F3E70120F7E779
:102060002DE9F047984616460D4604464FF0000904
:102070004FF0200AC1F3074723E020684069C043BE
:10208000400515D42068016841F4007101602168A1
:102090006FF480604861C4F8309084F83DA084F803
:1020A0003E90216C41F00401216484F83C9021E0D1
:1020B000701C06D0FEF736FAA0EB0800B04203D839
:1020C00016B1012F1FD021E02068012F15D08069A3
:1020D00025EA00000004000C18D000BF44F8309F2F
:1020E00084F80DA084F80E90216941F0200121614F
:1020F00084F80C900120BDE8F087406925EA0000D3
:102100000004000CEAD12068406901E02068806981
:1021100025EA00000004000CAFD1ECE72DE9F04106
:10212000002590460E460446202728E04069C0431B
:10213000C0060CD454F8301B6FF01000486144F80E
:1021400010596777A577206A2062257714E0FEF79B
:10215000E9F9A0EB0800B04200D886B920684069D0
:10216000C04340060BD544F8305F6773A573206900
:1021700040F02000206125730120BDE8F081206837
:102180004169C9434906D1D40020F6E770B5164627
:102190000D4604461EE02046FFF730FA08B1012044
:1021A00070BD681C16D0FEF7BDF9801BA84200D890
:1021B00085B920684069C04300060BD5002044F86B
:1021C000300F20216173A073216941F0200121614A
:1021D0002073E4E720684069C0430006DBD4002098
:1021E00070BD2DE9F0470746DDE9089A1D46904687
:1021F0000E463B2000F05CF804463C2000F058F806
:1022000040EA042038803D2000F052F804463E2089
:1022100000F04EF840EA042030803F2000F048F8FB
:102220000446402000F044F840EA0420A8F80000EA
:10223000432000F03DF80446442000F039F840EA1D
:1022400004202880452000F033F80446462000F0A2
:102250002FF840EA0420A9F80000472000F028F8F1
:102260000446482000F024F840EA0420AAF80000C0
:10227000BDE8F087752000F01BB810B501216B2078
:1022800000F02AF800216C2000F026F8092119201E
:1022900000F022F806211A2000F01EF818211B2059
:1022A00000F01AF81821BDE810401C2000F014B806
:1022B0001FB542F21073012203A98DE80E001346E8
:1022C00002460448D0210068FEF710FC9DF80C007F
:1022D00004B010BD1000002033B581B0084D42F2AB
:1022E0001074024600940123D0212868FEF766FB93
:1022F0000094012302AAD0212868FEF75FFB3EBDAF
:102300001000002070B586B0002418480094019495
:1023100002940394816941F020018161816901F097
:1023200020010491816941F004018161816901F01A
:1023300004010491816941F00801816180690C4EBA
:1023400000F008004FF4C065049000222946304692
:10235000FEF7E2F811200095CDE901040320039077
:1023600069463046FDF7E8FF06B070BD0010024038
:10237000000801400D4810B50B4901600C4941604F
:1023800000214FF480428160C0E903124161816104
:10239000C1610162FEF74AFA002803D0BDE810408F
:1023A000FDF777BF10BD000000540040140000206E
:1023B000A0860100FEE7FEE770B50024002120465C
:1023C00000F0DDF80025002000F090F96D1CEDB262
:1023D000802DF8D3641CE4B2082CEFD370BD00004C
:1023E00010B5064C012251022046FEF795F8204612
:1023F0000122BDE810409102FEF78EB800080140AE
:102400002DE9F047144E002407464FF080084FF4A2
:102410008069751528FA04F23A4049463046FEF7BD
:102420007BF8012229463046FEF776F8002229463D
:102430003046FEF771F8641CE4B2082CEAD301229E
:1024400029463046FEF768F829463046BDE8F04791
:102450000022FEF761B800000008014070B50122BB
:102460000B4D940221462846FEF756F801225602EB
:1024700031462846FEF750F8002221462846FEF74E
:102480004BF831462846BDE870400022FEF744B8BC
:102490000008014070B50A4D4FF4806400222146C7
:1024A0002846FEF739F8012251022846FEF734F893
:1024B00021462846BDE870400122FEF72DB80000F5
:1024C0000008014010B500204FF47A720021491C29
:1024D0009142FCD3401C9042F8D3FFF781FFAE201D
:1024E00000F0F3F8D52000F0F0F8802000F0EDF8CF
:1024F000A82000F0EAF83F2000F0E7F8D32000F031
:10250000E4F8002000F0E1F8402000F0DEF8A1201F
:1025100000F0DBF8C82000F0D8F8DA2000F0D5F899
:10252000122000F0D2F8812000F0CFF8CF2000F088
:10253000CCF8D92000F0C9F8F12000F0C6F8DB2073
:1025400000F0C3F8302000F0C0F8A42000F0BDF87F
:10255000A62000F0BAF88D2000F0B7F8142000F0A3
:10256000B4F8AF2000F0B1F8BDE81040FFF724BF89
:102570000246012000E05043491EFCD2704710B5CE
:102580000C4640F0B00000F0A0F8102040EA141013
:1025900000F09BF804F00F00BDE8104000F095B883
:1025A0002DE9F0410746CE004000083E801E15464A
:1025B0004FF0FF38F1B2C0B2FFF7E1FF114800243D
:1025C00000EB05152819A0F5805090F8000E00F0DA
:1025D0008DF8641CE4B2082CF4D308EB4700F1B288
:1025E000C0B2FFF7CCFF00242819A0F5805090F866
:1025F000080E00F07BF8641CE4B2082CF4D3BDE8AC
:10260000F08100006A2800082DE9F0411D461746B8
:102610000E468046002415E0291B1020491EFFF7B6
:10262000A7FFB7FBF0F000F00F0206EB0400C1B209
:102630000A2A404601D2303200E03732FFF7B0FFBD
:10264000641CE4B2AC42E7D3BDE8F0812DE9F04769
:102650001E4614008846814604D42B22FFF7A0FFB3
:10266000254603E02D22FFF79BFF654200240A2741
:1026700014E0311B0A20491EFFF77AFFB5FBF0F08A
:10268000B0FBF7F107FB110208EB0400401CC1B2DC
:1026900048463032FFF784FF641CE4B2B442E8D30A
:1026A000BDE8F0872DE9F04115460E4607460024A7
:1026B00006E03019C1B23846FFF772FF641CE4B27D
:1026C0002A5D002AF5D1BDE8F08110B50446FFF778
:1026D000C5FE7820FFF794FE0020FFF791FE20460C
:1026E000FFF78EFEBDE81040FFF7D4BE10B50446DC
:1026F000FFF7B4FE7820FFF783FE4020FFF780FE4F
:102700002046FFF77DFEBDE81040FFF7C3BE7047CF
:102710007047FEF753BB30B58FB028216846FDF7F0
:1027200053FD14210AA8FDF74FFD01210804CDE94E
:1027300000100024029402250491CDE907504FF4C3
:10274000E01009906846FEF795FC08B172B6FEE706
:102750000F20CDE90A054FF48060CDE90C4002213D
:102760000AA80E94FEF7BAFB002801D072B6FEE765
:102770000FB030BD7047FEE70907090E002804DBE3
:1027800000F1E02080F80014704700F00F0000F125
:10279000E02080F8141D704788B0FEF717FBFFF7A4
:1027A000BAFFFFF7AFFDFFF7E5FDFFF78BFEFFF781
:1027B00064FDFFF701FE012120A20846FFF772FF2A
:1027C000FFF758FD0246022304210120FFF71CFFFA
:1027D00003AD02AC07AB06AA05A904A8CDE90045E4
:1027E000FFF7FFFC0523BDF9102001210220FFF7B0
:1027F0002DFF0523BDF9142001210320FFF726FF3B
:102800000523BDF9182001210420FFF71FFF052330
:10281000BDF91C2008210220FFF718FF0523BDF990
:10282000082008210320FFF711FF0523BDF90C2024
:1028300008210420FFF70AFFCCE7000049443A00D2
:10284000010202030405060708090A0B0C0D0E0F0E
:102850001010000000000000000001020304060741
:10286000080900000000010203040000000000004D
:1028700000000000000000000000000000F8000060
:102880000000000000333000000000100C06100CA7
:102890000600000000000000000040C07840C07842
:1028A0004000043F04043F040400007088FC08302A
:1028B0000000001820FF211E0000F008F000E018C2
:1028C000000000211C031E211E0000F0088870007B
:1028D00000001E2123241927211010160E000000CD
:1028E00000000000000000000000000000E01804EC
:1028F0000200000000071820400000020418E00059
:1029000000000040201807000000404080F0804098
:1029100040000202010F01020200000000F000006E
:1029200000000101011F0101010000000000000082
:10293000000080B0700000000000000000000000F7
:102940000000000101010101010100000000000080
:102950000000003030000000000000000000806037
:102960001804006018060100000000E010080810BC
:10297000E000000F102020100F00001010F80000E1
:1029800000000020203F2020000000700808088878
:102990007000003028242221300000300888884848
:1029A00030000018202020110E000000C02010F878
:1029B000000000070424243F240000F80888880849
:1029C00008000019212020110E0000E0108888184E
:1029D0000000000F112020110E0000380808C83830
:1029E00008000000003F0000000000708808088810
:1029F0007000001C222121221C0000E01008081099
:102A0000E0000000312222110F00000000C0C000D1
:102A100000000000003030000000000000800000D6
:102A200000000000806000000000000080402010D6
:102A300008000001020408102000404040404040CF
:102A40004000040404040404040000081020408032
:102A50000000002010080402010000704808080867
:102A6000F0000000003036010000C030C828E81037
:102A7000E0000718272423140B000000C038E000F2
:102A80000000203C23020227382008F8888888703C
:102A90000000203F202020110E00C0300808080848
:102AA0003800071820202010080008F8080808102F
:102AB000E000203F202020100F0008F88888E80858
:102AC0001000203F20202320180008F88888E808FC
:102AD0001000203F200003000000C0300808083824
:102AE000000007182020221E020008F80800000835
:102AF000F808203F210101213F20000808F80808BC
:102B000000000020203F2020000000000808F808F6
:102B10000800C08080807F00000008F888C0281866
:102B20000800203F20012638200008F80800000097
:102B30000000203F20202020300008F8F800F8F89E
:102B40000800203F003F003F200008F830C0000888
:102B5000F808203F200007183F00E0100808081080
:102B6000E0000F10202020100F0008F808080808C7
:102B7000F000203F210101010000E01008080810CA
:102B8000E0000F18242438504F0008F888888888FF
:102B90007000203F2000030C3020007088080808D7
:102BA00038000038202121221C00180808F80808E5
:102BB00018000000203F2000000008F8080000086E
:102BC000F808001F202020201F000878880000C877
:102BD0003808000007380E010000F80800F8000867
:102BE000F800033C0700073C030008186880806871
:102BF000180820302C03032C30200838C800C838AF
:102C000008000000203F2000000010080808C83815
:102C100008002038262120201800000000FE0202B3
:102C200002000000007F40404000000C30C0000067
:102C30000000000000010638C00000020202FE0091
:102C40000000004040407F0000000000040202023B
:102C50000400000000000000000000000000000070
:102C6000000080808080808080800002020400005C
:102C70000000000000000000000000008080808054
:102C800000000019242222223F2008F80080800042
:102C90000000003F112020110E0000000080808005
:102CA0000000000E1120202011000000008080880C
:102CB000F800000E112020103F200000808080804E
:102CC0000000001F222222221300008080F088884A
:102CD00088180020203F2020000000008080808095
:102CE0008000006B94949493600008F800808080CA
:102CF0000000203F210000203F2000809898000025
:102D000000000020203F2020000000000080989854
:102D1000000000C08080807F000008F800008080F4
:102D20008000203F24022D302000000808F8000019
:102D300000000020203F20200000808080808080D4
:102D40008000203F20003F20003F80800080808066
:102D50000000203F210000203F2000008080808074
:102D60000000001F202020201F00808000808000A5
:102D7000000080FFA12020110E0000000080808054
:102D80008000000E112020A0FF80808080008080C5
:102D9000800020203F2120000100000080808080F2
:102DA00080000033242424241900008080E08080E7
:102DB00000000000001F2020000080800000008034
:102DC0008000001F202020103F2080808000008095
:102DD000808000010E3008060100808000800080A5
:102DE00080800F300C030C300F000080800080804A
:102DF00080000020312E0E31200080808000008075
:102E0000808080818E701806010000808080808024
:102E100080000021302C2221300000000000807C46
:102E2000020200000000003F404000000000FF00E0
:102E3000000000000000FF0000000002027C800093
:102E400000000040403F00000000000601010202B7
:102E50000404000000000000000000007C2E0008B8
:102E6000000000201400000028010008902E000837
:102E700014000020B4060000440100080100000016
:102E800010000000000000000024F40014000020E6
:04000005080000ED02
:00000001FF
